{
  "transactions": [
    {
      "hash": "0xf178c474cb7262e0562926c785557c32ecc757181f0bf3497806ca69b1ee008b",
      "transactionType": "CREATE",
      "contractName": "MockLaunchERC20",
      "contractAddress": "0x3cc7840140ff4cf8d4ae3176f9d9090a378cfab7",
      "function": null,
      "arguments": [
        "Launch Token",
        "LCH",
        "10000000000000000000000000",
        "0x4b992F2Fbf714C0fCBb23baC5130Ace48CaD00cd"
      ],
      "transaction": {
        "from": "0x4b992f2fbf714c0fcbb23bac5130ace48cad00cd",
        "gas": "0xb04f1",
        "value": "0x0",
        "input": "0x608060405234801561000f575f80fd5b50604051610b71380380610b7183398101604081905261002e91610265565b8383600361003c8382610376565b5060046100498282610376565b50505061005c818361006560201b60201c565b50505050610455565b6001600160a01b0382166100935760405163ec442f0560e01b81525f60048201526024015b60405180910390fd5b61009e5f83836100a2565b5050565b6001600160a01b0383166100cc578060025f8282546100c19190610430565b9091555061013c9050565b6001600160a01b0383165f908152602081905260409020548181101561011e5760405163391434e360e21b81526001600160a01b0385166004820152602481018290526044810183905260640161008a565b6001600160a01b0384165f9081526020819052604090209082900390555b6001600160a01b03821661015857600280548290039055610176565b6001600160a01b0382165f9081526020819052604090208054820190555b816001600160a01b0316836001600160a01b03167fddf252ad1be2c89b69c2b068fc378daa952ba7f163c4a11628f55a4df523b3ef836040516101bb91815260200190565b60405180910390a3505050565b634e487b7160e01b5f52604160045260245ffd5b5f82601f8301126101eb575f80fd5b81516001600160401b03811115610204576102046101c8565b604051601f8201601f19908116603f011681016001600160401b0381118282101715610232576102326101c8565b604052818152838201602001851015610249575f80fd5b8160208501602083015e5f918101602001919091529392505050565b5f805f8060808587031215610278575f80fd5b84516001600160401b0381111561028d575f80fd5b610299878288016101dc565b602087015190955090506001600160401b038111156102b6575f80fd5b6102c2878288016101dc565b60408701516060880151919550935090506001600160a01b03811681146102e7575f80fd5b939692955090935050565b600181811c9082168061030657607f821691505b60208210810361032457634e487b7160e01b5f52602260045260245ffd5b50919050565b601f82111561037157805f5260205f20601f840160051c8101602085101561034f5750805b601f840160051c820191505b8181101561036e575f815560010161035b565b50505b505050565b81516001600160401b0381111561038f5761038f6101c8565b6103a38161039d84546102f2565b8461032a565b6020601f8211600181146103d5575f83156103be5750848201515b5f19600385901b1c1916600184901b17845561036e565b5f84815260208120601f198516915b8281101561040457878501518255602094850194600190920191016103e4565b508482101561042157868401515f19600387901b60f8161c191681555b50505050600190811b01905550565b8082018082111561044f57634e487b7160e01b5f52601160045260245ffd5b92915050565b61070f806104625f395ff3fe608060405234801561000f575f80fd5b506004361061009b575f3560e01c806340c10f191161006357806340c10f191461011457806370a082311461012957806395d89b4114610151578063a9059cbb14610159578063dd62ed3e1461016c575f80fd5b806306fdde031461009f578063095ea7b3146100bd57806318160ddd146100e057806323b872dd146100f2578063313ce56714610105575b5f80fd5b6100a76101a4565b6040516100b491906105b5565b60405180910390f35b6100d06100cb366004610605565b610234565b60405190151581526020016100b4565b6002545b6040519081526020016100b4565b6100d061010036600461062d565b61024d565b604051601281526020016100b4565b610127610122366004610605565b610270565b005b6100e4610137366004610667565b6001600160a01b03165f9081526020819052604090205490565b6100a761027e565b6100d0610167366004610605565b61028d565b6100e461017a366004610687565b6001600160a01b039182165f90815260016020908152604080832093909416825291909152205490565b6060600380546101b3906106b8565b80601f01602080910402602001604051908101604052809291908181526020018280546101df906106b8565b801561022a5780601f106102015761010080835404028352916020019161022a565b820191905f5260205f20905b81548152906001019060200180831161020d57829003601f168201915b5050505050905090565b5f3361024181858561029a565b60019150505b92915050565b5f3361025a8582856102ac565b61026585858561032c565b506001949350505050565b61027a8282610389565b5050565b6060600480546101b3906106b8565b5f3361024181858561032c565b6102a783838360016103bd565b505050565b6001600160a01b038381165f908152600160209081526040808320938616835292905220545f198114610326578181101561031857604051637dc7a0d960e11b81526001600160a01b038416600482015260248101829052604481018390526064015b60405180910390fd5b61032684848484035f6103bd565b50505050565b6001600160a01b03831661035557604051634b637e8f60e11b81525f600482015260240161030f565b6001600160a01b03821661037e5760405163ec442f0560e01b81525f600482015260240161030f565b6102a783838361048f565b6001600160a01b0382166103b25760405163ec442f0560e01b81525f600482015260240161030f565b61027a5f838361048f565b6001600160a01b0384166103e65760405163e602df0560e01b81525f600482015260240161030f565b6001600160a01b03831661040f57604051634a1406b160e11b81525f600482015260240161030f565b6001600160a01b038085165f908152600160209081526040808320938716835292905220829055801561032657826001600160a01b0316846001600160a01b03167f8c5be1e5ebec7d5bd14f71427d1e84f3dd0314c0f7b2291e5b200ac8c7c3b9258460405161048191815260200190565b60405180910390a350505050565b6001600160a01b0383166104b9578060025f8282546104ae91906106f0565b909155506105299050565b6001600160a01b0383165f908152602081905260409020548181101561050b5760405163391434e360e21b81526001600160a01b0385166004820152602481018290526044810183905260640161030f565b6001600160a01b0384165f9081526020819052604090209082900390555b6001600160a01b03821661054557600280548290039055610563565b6001600160a01b0382165f9081526020819052604090208054820190555b816001600160a01b0316836001600160a01b03167fddf252ad1be2c89b69c2b068fc378daa952ba7f163c4a11628f55a4df523b3ef836040516105a891815260200190565b60405180910390a3505050565b602081525f82518060208401528060208501604085015e5f604082850101526040601f19601f83011684010191505092915050565b80356001600160a01b0381168114610600575f80fd5b919050565b5f8060408385031215610616575f80fd5b61061f836105ea565b946020939093013593505050565b5f805f6060848603121561063f575f80fd5b610648846105ea565b9250610656602085016105ea565b929592945050506040919091013590565b5f60208284031215610677575f80fd5b610680826105ea565b9392505050565b5f8060408385031215610698575f80fd5b6106a1836105ea565b91506106af602084016105ea565b90509250929050565b600181811c908216806106cc57607f821691505b6020821081036106ea57634e487b7160e01b5f52602260045260245ffd5b50919050565b8082018082111561024757634e487b7160e01b5f52601160045260245ffd000000000000000000000000000000000000000000000000000000000000008000000000000000000000000000000000000000000000000000000000000000c0000000000000000000000000000000000000000000084595161401484a0000000000000000000000000000004b992f2fbf714c0fcbb23bac5130ace48cad00cd000000000000000000000000000000000000000000000000000000000000000c4c61756e636820546f6b656e000000000000000000000000000000000000000000000000000000000000000000000000000000000000000000000000000000034c43480000000000000000000000000000000000000000000000000000000000",
        "nonce": "0x375",
        "chainId": "0x515"
      },
      "additionalContracts": [],
      "isFixedGasLimit": false
    },
    {
      "hash": "0x79ea5db22362ccf8c54f686ce1220e04feafcfcfb88d6a172459490db1912433",
      "transactionType": "CREATE",
      "contractName": "MockLaunchERC20",
      "contractAddress": "0xbe6c8171004b70a1d9694536a4891dce86e4b44e",
      "function": null,
      "arguments": [
        "Paired Token",
        "PAIR",
        "10000000000000000000000000",
        "0x4b992F2Fbf714C0fCBb23baC5130Ace48CaD00cd"
      ],
      "transaction": {
        "from": "0x4b992f2fbf714c0fcbb23bac5130ace48cad00cd",
        "gas": "0xb0501",
        "value": "0x0",
        "input": "0x608060405234801561000f575f80fd5b50604051610b71380380610b7183398101604081905261002e91610265565b8383600361003c8382610376565b5060046100498282610376565b50505061005c818361006560201b60201c565b50505050610455565b6001600160a01b0382166100935760405163ec442f0560e01b81525f60048201526024015b60405180910390fd5b61009e5f83836100a2565b5050565b6001600160a01b0383166100cc578060025f8282546100c19190610430565b9091555061013c9050565b6001600160a01b0383165f908152602081905260409020548181101561011e5760405163391434e360e21b81526001600160a01b0385166004820152602481018290526044810183905260640161008a565b6001600160a01b0384165f9081526020819052604090209082900390555b6001600160a01b03821661015857600280548290039055610176565b6001600160a01b0382165f9081526020819052604090208054820190555b816001600160a01b0316836001600160a01b03167fddf252ad1be2c89b69c2b068fc378daa952ba7f163c4a11628f55a4df523b3ef836040516101bb91815260200190565b60405180910390a3505050565b634e487b7160e01b5f52604160045260245ffd5b5f82601f8301126101eb575f80fd5b81516001600160401b03811115610204576102046101c8565b604051601f8201601f19908116603f011681016001600160401b0381118282101715610232576102326101c8565b604052818152838201602001851015610249575f80fd5b8160208501602083015e5f918101602001919091529392505050565b5f805f8060808587031215610278575f80fd5b84516001600160401b0381111561028d575f80fd5b610299878288016101dc565b602087015190955090506001600160401b038111156102b6575f80fd5b6102c2878288016101dc565b60408701516060880151919550935090506001600160a01b03811681146102e7575f80fd5b939692955090935050565b600181811c9082168061030657607f821691505b60208210810361032457634e487b7160e01b5f52602260045260245ffd5b50919050565b601f82111561037157805f5260205f20601f840160051c8101602085101561034f5750805b601f840160051c820191505b8181101561036e575f815560010161035b565b50505b505050565b81516001600160401b0381111561038f5761038f6101c8565b6103a38161039d84546102f2565b8461032a565b6020601f8211600181146103d5575f83156103be5750848201515b5f19600385901b1c1916600184901b17845561036e565b5f84815260208120601f198516915b8281101561040457878501518255602094850194600190920191016103e4565b508482101561042157868401515f19600387901b60f8161c191681555b50505050600190811b01905550565b8082018082111561044f57634e487b7160e01b5f52601160045260245ffd5b92915050565b61070f806104625f395ff3fe608060405234801561000f575f80fd5b506004361061009b575f3560e01c806340c10f191161006357806340c10f191461011457806370a082311461012957806395d89b4114610151578063a9059cbb14610159578063dd62ed3e1461016c575f80fd5b806306fdde031461009f578063095ea7b3146100bd57806318160ddd146100e057806323b872dd146100f2578063313ce56714610105575b5f80fd5b6100a76101a4565b6040516100b491906105b5565b60405180910390f35b6100d06100cb366004610605565b610234565b60405190151581526020016100b4565b6002545b6040519081526020016100b4565b6100d061010036600461062d565b61024d565b604051601281526020016100b4565b610127610122366004610605565b610270565b005b6100e4610137366004610667565b6001600160a01b03165f9081526020819052604090205490565b6100a761027e565b6100d0610167366004610605565b61028d565b6100e461017a366004610687565b6001600160a01b039182165f90815260016020908152604080832093909416825291909152205490565b6060600380546101b3906106b8565b80601f01602080910402602001604051908101604052809291908181526020018280546101df906106b8565b801561022a5780601f106102015761010080835404028352916020019161022a565b820191905f5260205f20905b81548152906001019060200180831161020d57829003601f168201915b5050505050905090565b5f3361024181858561029a565b60019150505b92915050565b5f3361025a8582856102ac565b61026585858561032c565b506001949350505050565b61027a8282610389565b5050565b6060600480546101b3906106b8565b5f3361024181858561032c565b6102a783838360016103bd565b505050565b6001600160a01b038381165f908152600160209081526040808320938616835292905220545f198114610326578181101561031857604051637dc7a0d960e11b81526001600160a01b038416600482015260248101829052604481018390526064015b60405180910390fd5b61032684848484035f6103bd565b50505050565b6001600160a01b03831661035557604051634b637e8f60e11b81525f600482015260240161030f565b6001600160a01b03821661037e5760405163ec442f0560e01b81525f600482015260240161030f565b6102a783838361048f565b6001600160a01b0382166103b25760405163ec442f0560e01b81525f600482015260240161030f565b61027a5f838361048f565b6001600160a01b0384166103e65760405163e602df0560e01b81525f600482015260240161030f565b6001600160a01b03831661040f57604051634a1406b160e11b81525f600482015260240161030f565b6001600160a01b038085165f908152600160209081526040808320938716835292905220829055801561032657826001600160a01b0316846001600160a01b03167f8c5be1e5ebec7d5bd14f71427d1e84f3dd0314c0f7b2291e5b200ac8c7c3b9258460405161048191815260200190565b60405180910390a350505050565b6001600160a01b0383166104b9578060025f8282546104ae91906106f0565b909155506105299050565b6001600160a01b0383165f908152602081905260409020548181101561050b5760405163391434e360e21b81526001600160a01b0385166004820152602481018290526044810183905260640161030f565b6001600160a01b0384165f9081526020819052604090209082900390555b6001600160a01b03821661054557600280548290039055610563565b6001600160a01b0382165f9081526020819052604090208054820190555b816001600160a01b0316836001600160a01b03167fddf252ad1be2c89b69c2b068fc378daa952ba7f163c4a11628f55a4df523b3ef836040516105a891815260200190565b60405180910390a3505050565b602081525f82518060208401528060208501604085015e5f604082850101526040601f19601f83011684010191505092915050565b80356001600160a01b0381168114610600575f80fd5b919050565b5f8060408385031215610616575f80fd5b61061f836105ea565b946020939093013593505050565b5f805f6060848603121561063f575f80fd5b610648846105ea565b9250610656602085016105ea565b929592945050506040919091013590565b5f60208284031215610677575f80fd5b610680826105ea565b9392505050565b5f8060408385031215610698575f80fd5b6106a1836105ea565b91506106af602084016105ea565b90509250929050565b600181811c908216806106cc57607f821691505b6020821081036106ea57634e487b7160e01b5f52602260045260245ffd5b50919050565b8082018082111561024757634e487b7160e01b5f52601160045260245ffd000000000000000000000000000000000000000000000000000000000000008000000000000000000000000000000000000000000000000000000000000000c0000000000000000000000000000000000000000000084595161401484a0000000000000000000000000000004b992f2fbf714c0fcbb23bac5130ace48cad00cd000000000000000000000000000000000000000000000000000000000000000c50616972656420546f6b656e000000000000000000000000000000000000000000000000000000000000000000000000000000000000000000000000000000045041495200000000000000000000000000000000000000000000000000000000",
        "nonce": "0x376",
        "chainId": "0x515"
      },
      "additionalContracts": [],
      "isFixedGasLimit": false
    },
    {
      "hash": "0xde307705380547ad2ba12bf527af5c8a14a31f89a576e4e7a98f255216c2985d",
      "transactionType": "CREATE",
      "contractName": "PoolModifyLiquidityTest",
      "contractAddress": "0x71c7eaa56391147b8d05c1fe39b93eb8d8630366",
      "function": null,
      "arguments": [
        "0x00B036B58a818B1BC34d502D3fE730Db729e62AC"
      ],
      "transaction": {
        "from": "0x4b992f2fbf714c0fcbb23bac5130ace48cad00cd",
        "gas": "0x1935c0",
        "value": "0x0",
        "input": "0x60a0604052348015600e575f80fd5b506040516116cd3803806116cd833981016040819052602b91603b565b6001600160a01b03166080526066565b5f60208284031215604a575f80fd5b81516001600160a01b0381168114605f575f80fd5b9392505050565b6080516116046100c95f395f818160790152818160f50152818161022d01528181610294015281816102c501528181610390015281816104fa01528181610550015281816105bf015281816106100152818161078501526107b801526116045ff3fe60806040526004361061003e575f3560e01c80630a5b11e414610042578063481c6a75146100685780635a6bcfda146100b357806391dd7346146100c6575b5f80fd5b61005561005036600461108b565b6100f2565b6040519081526020015b60405180910390f35b348015610073575f80fd5b5061009b7f000000000000000000000000000000000000000000000000000000000000000081565b6040516001600160a01b03909116815260200161005f565b6100556100c1366004611111565b61020a565b3480156100d1575f80fd5b506100e56100e036600461116e565b610220565b60405161005f9190611208565b5f7f00000000000000000000000000000000000000000000000000000000000000006001600160a01b03166348c894916040518060c00160405280336001600160a01b03168152602001898152602001888152602001878152602001861515815260200185151581525060405160200161016c9190611264565b6040516020818303038152906040526040518263ffffffff1660e01b81526004016101979190611208565b5f604051808303815f875af11580156101b2573d5f803e3d5ffd5b505050506040513d5f823e601f3d908101601f191682016040526101d99190810190611300565b8060200190518101906101ec9190611374565b9050478015610200576102005f3383610662565b5095945050505050565b5f6102188484845f806100f2565b949350505050565b6060336001600160a01b037f00000000000000000000000000000000000000000000000000000000000000001614610256575f80fd5b5f6102638385018561138b565b90505f6102be610278836020015160a0902090565b6040840151805160208201516060909201516001600160a01b037f0000000000000000000000000000000000000000000000000000000000000000169392309291610707565b505090505f7f00000000000000000000000000000000000000000000000000000000000000006001600160a01b0316635a6bcfda8460200151856040015186606001516040518463ffffffff1660e01b815260040161031f93929190611452565b60408051808303815f875af115801561033a573d5f803e3d5ffd5b505050506040513d601f19601f8201168201806040525081019061035e91906114a1565b5090505f6103ba610374856020015160a0902090565b6040860151805160208201516060909201516001600160a01b037f0000000000000000000000000000000000000000000000000000000000000000169392309291610707565b505090505f6103d485602001515f0151865f01513061075e565b925050505f6103ef866020015160200151875f01513061075e565b9250505082600f0b86604001516040015186600f0b61040e91906114d7565b1461045f5760405162461bcd60e51b815260206004820152601a60248201527f6c6971756964697479206368616e676520696e636f7272656374000000000000604482015260640160405180910390fd5b5f86604001516040015112156104a7575f82138061047c57505f81135b610488576104886114fe565b5f82128061049557505f81125b156104a2576104a26114fe565b6104ea565b5f86604001516040015113156104ea575f8212806104c457505f81125b6104d0576104d06114fe565b5f8213806104dd57505f81135b156104ea576104ea6114fe565b5f821215610540578551610540907f00000000000000000000000000000000000000000000000000000000000000009061052385611512565b60808a015160208b0151516001600160a01b0316939291906107ea565b5f811215610598578551610598907f00000000000000000000000000000000000000000000000000000000000000009061057984611512565b60808a01516020808c015101516001600160a01b0316939291906107ea565b5f8213156105e757855160a08701516020880151516105e7926001600160a01b03909116917f000000000000000000000000000000000000000000000000000000000000000091908690610ab6565b5f81131561063857855160a08701516020808901510151610638926001600160a01b03909116917f000000000000000000000000000000000000000000000000000000000000000091908590610ab6565b60408051602081018690520160405160208183030381529060405296505050505050505b92915050565b5f6001600160a01b038416610697575f805f8085875af190508061069257610692835f633d2cec6f60e21b610b88565b610701565b60405163a9059cbb60e01b81526001600160a01b038416600482015282602482015260205f6044835f895af13d15601f3d1160015f511416171691505f81525f60208201525f60408201525080610701576107018463a9059cbb60e01b633c9fd93960e21b610b88565b50505050565b60408051602681018390526006810184905260038101859052858152603a600c8201205f92820183905260208201839052908290528190819061074b8a8a83610c00565b919c909b50909950975050505050505050565b5f80806107746001600160a01b03871686610ca3565b92506107a96001600160a01b0387167f0000000000000000000000000000000000000000000000000000000000000000610ca3565b91506107df6001600160a01b037f0000000000000000000000000000000000000000000000000000000000000000168588610d32565b905093509350939050565b801561087f57836001600160a01b031663f5298aca84610819886001600160a01b03166001600160a01b031690565b6040516001600160e01b031960e085901b1681526001600160a01b0390921660048301526024820152604481018590526064015b5f604051808303815f87803b158015610864575f80fd5b505af1158015610876573d5f803e3d5ffd5b50505050610aaf565b6001600160a01b0385166108f657836001600160a01b03166311da60b4836040518263ffffffff1660e01b815260040160206040518083038185885af11580156108cb573d5f803e3d5ffd5b50505050506040513d601f19601f820116820180604052508101906108f09190611374565b50610aaf565b604051632961046560e21b81526001600160a01b03868116600483015285169063a5841194906024015f604051808303815f87803b158015610936575f80fd5b505af1158015610948573d5f803e3d5ffd5b505050506001600160a01b03831630146109da576040516323b872dd60e01b81526001600160a01b0384811660048301528581166024830152604482018490528616906323b872dd906064016020604051808303815f875af11580156109b0573d5f803e3d5ffd5b505050506040513d601f19601f820116820180604052508101906109d4919061152c565b50610a4c565b60405163a9059cbb60e01b81526001600160a01b0385811660048301526024820184905286169063a9059cbb906044016020604051808303815f875af1158015610a26573d5f803e3d5ffd5b505050506040513d601f19601f82011682018060405250810190610a4a919061152c565b505b836001600160a01b03166311da60b46040518163ffffffff1660e01b81526004016020604051808303815f875af1158015610a89573d5f803e3d5ffd5b505050506040513d601f19601f82011682018060405250810190610aad9190611374565b505b5050505050565b80610af857604051630b0d9c0960e01b81526001600160a01b038681166004830152848116602483015260448201849052851690630b0d9c099060640161084d565b836001600160a01b031663156e29f684610b21886001600160a01b03166001600160a01b031690565b6040516001600160e01b031960e085901b1681526001600160a01b0390921660048301526024820152604481018590526064015f604051808303815f87803b158015610b6b575f80fd5b505af1158015610b7d573d5f803e3d5ffd5b505050505050505050565b6040516390bfb86560e01b8082526001600160a01b03851660048301526001600160e01b031984166024830152608060448301526020601f3d018190040260a0810160648401523d608484015290913d5f60a483013e60048260a4018201526001600160e01b031984168260c4018201528160e40181fd5b5f805f80610c0e8686610dc9565b604051631afeb18d60e11b815260048101829052600360248201529091505f906001600160a01b038916906335fd631a906044015f60405180830381865afa158015610c5c573d5f803e3d5ffd5b505050506040513d5f823e601f3d908101601f19168201604052610c839190810190611547565b60208101516040820151606090920151909a919950975095505050505050565b5f6001600160a01b038316610cc357506001600160a01b0381163161065c565b6040516370a0823160e01b81526001600160a01b0383811660048301528416906370a0823190602401602060405180830381865afa158015610d07573d5f803e3d5ffd5b505050506040513d601f19601f82011682018060405250810190610d2b9190611374565b905061065c565b5f806001600160a01b0384165f526001600160a01b03831660205260405f209050846001600160a01b031663f135baaa826040518263ffffffff1660e01b8152600401610d8191815260200190565b602060405180830381865afa158015610d9c573d5f803e3d5ffd5b505050506040513d601f19601f82011682018060405250810190610dc09190611374565b95945050505050565b5f80610dd484610e19565b90505f610de26006836115f1565b6040805160208101879052908101829052909150606001604051602081830303815290604052805190602001209250505092915050565b6040515f90610e38908390600690602001918252602082015260400190565b604051602081830303815290604052805190602001209050919050565b634e487b7160e01b5f52604160045260245ffd5b60405160c081016001600160401b0381118282101715610e8b57610e8b610e55565b60405290565b604051601f8201601f191681016001600160401b0381118282101715610eb957610eb9610e55565b604052919050565b6001600160a01b0381168114610ed5575f80fd5b50565b8035600281900b8114610ee9575f80fd5b919050565b5f60a08284031215610efe575f80fd5b60405160a081016001600160401b0381118282101715610f2057610f20610e55565b6040529050808235610f3181610ec1565b81526020830135610f4181610ec1565b6020820152604083013562ffffff81168114610f5b575f80fd5b6040820152610f6c60608401610ed8565b60608201526080830135610f7f81610ec1565b6080919091015292915050565b5f60808284031215610f9c575f80fd5b604051608081016001600160401b0381118282101715610fbe57610fbe610e55565b604052905080610fcd83610ed8565b8152610fdb60208401610ed8565b602082015260408301356040820152606083013560608201525092915050565b5f6001600160401b0382111561101357611013610e55565b50601f01601f191660200190565b5f82601f830112611030575f80fd5b813561104361103e82610ffb565b610e91565b818152846020838601011115611057575f80fd5b816020850160208301375f918101602001919091529392505050565b8015158114610ed5575f80fd5b8035610ee981611073565b5f805f805f61018086880312156110a0575f80fd5b6110aa8787610eee565b94506110b98760a08801610f8c565b93506101208601356001600160401b038111156110d4575f80fd5b6110e088828901611021565b9350506101408601356110f281611073565b915061016086013561110381611073565b809150509295509295909350565b5f805f6101408486031215611124575f80fd5b61112e8585610eee565b925061113d8560a08601610f8c565b91506101208401356001600160401b03811115611158575f80fd5b61116486828701611021565b9150509250925092565b5f806020838503121561117f575f80fd5b82356001600160401b03811115611194575f80fd5b8301601f810185136111a4575f80fd5b80356001600160401b038111156111b9575f80fd5b8560208284010111156111ca575f80fd5b6020919091019590945092505050565b5f81518084528060208401602086015e5f602082860101526020601f19601f83011685010191505092915050565b602081525f61121a60208301846111da565b9392505050565b80516001600160a01b03908116835260208083015182169084015260408083015162ffffff169084015260608083015160020b9084015260809182015116910152565b602080825282516001600160a01b0316828201528201515f9061128a6040840182611221565b506040838101518051600290810b60e08601526020820151900b610100850152908101516101208401526060908101516101408401528301516101a06101608401526112da6101c08401826111da565b90506080840151151561018084015260a084015115156101a08401528091505092915050565b5f60208284031215611310575f80fd5b81516001600160401b03811115611325575f80fd5b8201601f81018413611335575f80fd5b805161134361103e82610ffb565b818152856020838501011115611357575f80fd5b8160208401602083015e5f91810160200191909152949350505050565b5f60208284031215611384575f80fd5b5051919050565b5f6020828403121561139b575f80fd5b81356001600160401b038111156113b0575f80fd5b82016101a081850312156113c2575f80fd5b6113ca610e69565b81356113d581610ec1565b81526113e48560208401610eee565b60208201526113f68560c08401610f8c565b60408201526101408201356001600160401b03811115611414575f80fd5b61142086828501611021565b6060830152506114336101608301611080565b60808201526114456101808301611080565b60a0820152949350505050565b61145c8185611221565b8251600290810b60a08301526020840151900b60c0820152604083015160e082015260608301516101008201526101406101208201525f610dc06101408301846111da565b5f80604083850312156114b2575f80fd5b505080516020909101519092909150565b634e487b7160e01b5f52601160045260245ffd5b8082018281125f8312801582168215821617156114f6576114f66114c3565b505092915050565b634e487b7160e01b5f52600160045260245ffd5b5f600160ff1b8201611526576115266114c3565b505f0390565b5f6020828403121561153c575f80fd5b815161121a81611073565b5f60208284031215611557575f80fd5b81516001600160401b0381111561156c575f80fd5b8201601f8101841361157c575f80fd5b80516001600160401b0381111561159557611595610e55565b8060051b6115a560208201610e91565b918252602081840181019290810190878411156115c0575f80fd5b6020850194505b838510156115e6578451808352602095860195909350909101906115c7565b979650505050505050565b8082018082111561065c5761065c6114c35600000000000000000000000000b036b58a818b1bc34d502d3fe730db729e62ac",
        "nonce": "0x377",
        "chainId": "0x515"
      },
      "additionalContracts": [],
      "isFixedGasLimit": false
    },
    {
      "hash": "0x1a98bee8c8f145e071a828a3234253f3fabba22d24cdfed225d94c01fd7c7c78",
      "transactionType": "CREATE",
      "contractName": "PoolSwapTest",
      "contractAddress": "0xc7e2b73632a9fce139e7de31e74f49ef4ecd66ae",
      "function": null,
      "arguments": [
        "0x00B036B58a818B1BC34d502D3fE730Db729e62AC"
      ],
      "transaction": {
        "from": "0x4b992f2fbf714c0fcbb23bac5130ace48cad00cd",
        "gas": "0x1a8c1e",
        "value": "0x0",
        "input": "0x60a0604052348015600e575f80fd5b506040516117f43803806117f4833981016040819052602b91603b565b6001600160a01b03166080526066565b5f60208284031215604a575f80fd5b81516001600160a01b0381168114605f575f80fd5b9392505050565b6080516117396100bb5f395f8181606e0152818160d7015281816101ee0152818161030001528181610888015281816108e10152818161095e015281816109b201528181610ad00152610b0301526117395ff3fe608060405260043610610033575f3560e01c80632229d0b414610037578063481c6a751461005d57806391dd7346146100a8575b5f80fd5b61004a6100453660046112dc565b6100d4565b6040519081526020015b60405180910390f35b348015610068575f80fd5b506100907f000000000000000000000000000000000000000000000000000000000000000081565b6040516001600160a01b039091168152602001610054565b3480156100b3575f80fd5b506100c76100c236600461134d565b6101e1565b60405161005491906113e9565b5f7f00000000000000000000000000000000000000000000000000000000000000006001600160a01b03166348c894916040518060a00160405280336001600160a01b03168152602001868152602001888152602001878152602001858152506040516020016101449190611445565b6040516020818303038152906040526040518263ffffffff1660e01b815260040161016f91906113e9565b5f604051808303815f875af115801561018a573d5f803e3d5ffd5b505050506040513d5f823e601f3d908101601f191682016040526101b191908101906114d6565b8060200190518101906101c4919061154b565b90504780156101d8576101d85f3383610a04565b50949350505050565b6060336001600160a01b037f00000000000000000000000000000000000000000000000000000000000000001614610217575f80fd5b5f61022483850185611562565b90505f61023c82604001515f0151835f015130610aa9565b925050505f610257836040015160200151845f015130610aa9565b92505050815f146102af5760405162461bcd60e51b815260206004820152601e60248201527f64656c74614265666f726530206973206e6f7420657175616c20746f2030000060448201526064015b60405180910390fd5b80156102fd5760405162461bcd60e51b815260206004820152601e60248201527f64656c74614265666f726531206973206e6f7420657175616c20746f2030000060448201526064016102a6565b5f7f00000000000000000000000000000000000000000000000000000000000000006001600160a01b031663f3cd914c8560400151866060015187608001516040518463ffffffff1660e01b815260040161035a9392919061161a565b6020604051808303815f875af1158015610376573d5f803e3d5ffd5b505050506040513d601f19601f8201168201806040525081019061039a919061154b565b90505f6103b285604001515f0151865f015130610aa9565b925050505f6103cd866040015160200151875f015130610aa9565b9250505085606001515f01511561062f575f86606001516020015112156105125785606001516020015182121561047c5760405162461bcd60e51b815260206004820152604760248201527f64656c7461416674657230206973206e6f742067726561746572207468616e2060448201527f6f7220657175616c20746f20646174612e706172616d732e616d6f756e7453706064820152661958da599a595960ca1b608482015260a4016102a6565b816104878460801d90565b600f0b146104a75760405162461bcd60e51b81526004016102a690611662565b5f81121561050d5760405162461bcd60e51b815260206004820152602d60248201527f64656c7461416674657231206973206e6f742067726561746572207468616e2060448201526c06f7220657175616c20746f203609c1b60648201526084016102a6565b610878565b5f8213156105785760405162461bcd60e51b815260206004820152602d60248201527f64656c7461416674657230206973206e6f74206c657373207468616e206f722060448201526c657175616c20746f207a65726f60981b60648201526084016102a6565b8061058384600f0b90565b600f0b146105a35760405162461bcd60e51b81526004016102a6906116ad565b85606001516020015181131561050d5760405162461bcd60e51b8152602060048201526044602482018190527f64656c7461416674657231206973206e6f74206c657373207468616e206f7220908201527f657175616c20746f20646174612e706172616d732e616d6f756e745370656369606482015263199a595960e21b608482015260a4016102a6565b5f866060015160200151121561075e578560600151602001518112156106cd5760405162461bcd60e51b815260206004820152604760248201527f64656c7461416674657231206973206e6f742067726561746572207468616e2060448201527f6f7220657175616c20746f20646174612e706172616d732e616d6f756e7453706064820152661958da599a595960ca1b608482015260a4016102a6565b806106d884600f0b90565b600f0b146106f85760405162461bcd60e51b81526004016102a6906116ad565b5f82121561050d5760405162461bcd60e51b815260206004820152602d60248201527f64656c7461416674657230206973206e6f742067726561746572207468616e2060448201526c06f7220657175616c20746f203609c1b60648201526084016102a6565b5f8113156107c15760405162461bcd60e51b815260206004820152602a60248201527f64656c7461416674657231206973206e6f74206c657373207468616e206f72206044820152690657175616c20746f20360b41b60648201526084016102a6565b816107cc8460801d90565b600f0b146107ec5760405162461bcd60e51b81526004016102a690611662565b8560600151602001518213156108785760405162461bcd60e51b8152602060048201526044602482018190527f64656c7461416674657230206973206e6f74206c657373207468616e206f7220908201527f657175616c20746f20646174612e706172616d732e616d6f756e745370656369606482015263199a595960e21b608482015260a4016102a6565b5f8212156108d15785516108d1907f0000000000000000000000000000000000000000000000000000000000000000906108b1856116f8565b6020808b0151015160408b0151516001600160a01b031693929190610b35565b5f811215610936578551610936907f00000000000000000000000000000000000000000000000000000000000000009061090a846116f8565b8960200151602001518a60400151602001516001600160a01b0316610b3590949392919063ffffffff16565b5f821315610986578551602087015151604088015151610986926001600160a01b03909116917f000000000000000000000000000000000000000000000000000000000000000091908690610e01565b5f8113156109da578551602080880151516040890151909101516109da926001600160a01b03909116917f000000000000000000000000000000000000000000000000000000000000000091908590610e01565b60408051602081018590520160405160208183030381529060405296505050505050505b92915050565b5f6001600160a01b038416610a39575f805f8085875af1905080610a3457610a34835f633d2cec6f60e21b610ed3565b610aa3565b60405163a9059cbb60e01b81526001600160a01b038416600482015282602482015260205f6044835f895af13d15601f3d1160015f511416171691505f81525f60208201525f60408201525080610aa357610aa38463a9059cbb60e01b633c9fd93960e21b610ed3565b50505050565b5f8080610abf6001600160a01b03871686610f4b565b9250610af46001600160a01b0387167f0000000000000000000000000000000000000000000000000000000000000000610f4b565b9150610b2a6001600160a01b037f0000000000000000000000000000000000000000000000000000000000000000168588610fda565b905093509350939050565b8015610bca57836001600160a01b031663f5298aca84610b64886001600160a01b03166001600160a01b031690565b6040516001600160e01b031960e085901b1681526001600160a01b0390921660048301526024820152604481018590526064015b5f604051808303815f87803b158015610baf575f80fd5b505af1158015610bc1573d5f803e3d5ffd5b50505050610dfa565b6001600160a01b038516610c4157836001600160a01b03166311da60b4836040518263ffffffff1660e01b815260040160206040518083038185885af1158015610c16573d5f803e3d5ffd5b50505050506040513d601f19601f82011682018060405250810190610c3b919061154b565b50610dfa565b604051632961046560e21b81526001600160a01b03868116600483015285169063a5841194906024015f604051808303815f87803b158015610c81575f80fd5b505af1158015610c93573d5f803e3d5ffd5b505050506001600160a01b0383163014610d25576040516323b872dd60e01b81526001600160a01b0384811660048301528581166024830152604482018490528616906323b872dd906064016020604051808303815f875af1158015610cfb573d5f803e3d5ffd5b505050506040513d601f19601f82011682018060405250810190610d1f919061171e565b50610d97565b60405163a9059cbb60e01b81526001600160a01b0385811660048301526024820184905286169063a9059cbb906044016020604051808303815f875af1158015610d71573d5f803e3d5ffd5b505050506040513d601f19601f82011682018060405250810190610d95919061171e565b505b836001600160a01b03166311da60b46040518163ffffffff1660e01b81526004016020604051808303815f875af1158015610dd4573d5f803e3d5ffd5b505050506040513d601f19601f82011682018060405250810190610df8919061154b565b505b5050505050565b80610e4357604051630b0d9c0960e01b81526001600160a01b038681166004830152848116602483015260448201849052851690630b0d9c0990606401610b98565b836001600160a01b031663156e29f684610e6c886001600160a01b03166001600160a01b031690565b6040516001600160e01b031960e085901b1681526001600160a01b0390921660048301526024820152604481018590526064015f604051808303815f87803b158015610eb6575f80fd5b505af1158015610ec8573d5f803e3d5ffd5b505050505050505050565b6040516390bfb86560e01b8082526001600160a01b03851660048301526001600160e01b031984166024830152608060448301526020601f3d018190040260a0810160648401523d608484015290913d5f60a483013e60048260a4018201526001600160e01b031984168260c4018201528160e40181fd5b5f6001600160a01b038316610f6b57506001600160a01b038116316109fe565b6040516370a0823160e01b81526001600160a01b0383811660048301528416906370a0823190602401602060405180830381865afa158015610faf573d5f803e3d5ffd5b505050506040513d601f19601f82011682018060405250810190610fd3919061154b565b90506109fe565b5f806001600160a01b0384165f526001600160a01b03831660205260405f209050846001600160a01b031663f135baaa826040518263ffffffff1660e01b815260040161102991815260200190565b602060405180830381865afa158015611044573d5f803e3d5ffd5b505050506040513d601f19601f82011682018060405250810190611068919061154b565b95945050505050565b634e487b7160e01b5f52604160045260245ffd5b60405160a0810167ffffffffffffffff811182821017156110a8576110a8611071565b60405290565b604051601f8201601f1916810167ffffffffffffffff811182821017156110d7576110d7611071565b604052919050565b6001600160a01b03811681146110f3575f80fd5b50565b8035611101816110df565b919050565b5f60a08284031215611116575f80fd5b61111e611085565b9050813561112b816110df565b8152602082013561113b816110df565b6020820152604082013562ffffff81168114611155575f80fd5b60408201526060820135600281900b811461116e575f80fd5b606082015261117f608083016110f6565b608082015292915050565b80151581146110f3575f80fd5b5f606082840312156111a7575f80fd5b6040516060810167ffffffffffffffff811182821017156111ca576111ca611071565b60405290508082356111db8161118a565b81526020838101359082015260408301356111f5816110df565b6040919091015292915050565b5f60408284031215611212575f80fd5b6040805190810167ffffffffffffffff8111828210171561123557611235611071565b60405290508082356112468161118a565b815260208301356112568161118a565b6020919091015292915050565b5f67ffffffffffffffff82111561127c5761127c611071565b50601f01601f191660200190565b5f82601f830112611299575f80fd5b81356112ac6112a782611263565b6110ae565b8181528460208386010111156112c0575f80fd5b816020850160208301375f918101602001919091529392505050565b5f805f8061016085870312156112f0575f80fd5b6112fa8686611106565b93506113098660a08701611197565b9250611319866101008701611202565b915061014085013567ffffffffffffffff811115611335575f80fd5b6113418782880161128a565b91505092959194509250565b5f806020838503121561135e575f80fd5b823567ffffffffffffffff811115611374575f80fd5b8301601f81018513611384575f80fd5b803567ffffffffffffffff81111561139a575f80fd5b8560208284010111156113ab575f80fd5b6020919091019590945092505050565b5f81518084528060208401602086015e5f602082860101526020601f19601f83011685010191505092915050565b602081525f6113fb60208301846113bb565b9392505050565b80516001600160a01b03908116835260208083015182169084015260408083015162ffffff169084015260608083015160020b9084015260809182015116910152565b602080825282516001600160a01b0316828201528281015180511515604080850191909152910151151560608301528201515f906114866080840182611402565b506060830151805115156101208401526020810151610140840152604001516001600160a01b03166101608301526080830151610180808401526114ce6101a08401826113bb565b949350505050565b5f602082840312156114e6575f80fd5b815167ffffffffffffffff8111156114fc575f80fd5b8201601f8101841361150c575f80fd5b805161151a6112a782611263565b81815285602083850101111561152e575f80fd5b8160208401602083015e5f91810160200191909152949350505050565b5f6020828403121561155b575f80fd5b5051919050565b5f60208284031215611572575f80fd5b813567ffffffffffffffff811115611588575f80fd5b8201610180818503121561159a575f80fd5b6115a2611085565b81356115ad816110df565b81526115bc8560208401611202565b60208201526115ce8560608401611106565b60408201526115e1856101008401611197565b606082015261016082013567ffffffffffffffff811115611600575f80fd5b61160c8682850161128a565b608083015250949350505050565b6116248185611402565b8251151560a0820152602083015160c082015260408301516001600160a01b031660e08201526101206101008201525f6110686101208301846113bb565b6020808252602b908201527f64656c74612e616d6f756e74302829206973206e6f7420657175616c20746f2060408201526a064656c74614166746572360ac1b606082015260800190565b6020808252602b908201527f64656c74612e616d6f756e74312829206973206e6f7420657175616c20746f2060408201526a64656c746141667465723160a81b606082015260800190565b5f600160ff1b820161171857634e487b7160e01b5f52601160045260245ffd5b505f0390565b5f6020828403121561172e575f80fd5b81516113fb8161118a5600000000000000000000000000b036b58a818b1bc34d502d3fe730db729e62ac",
        "nonce": "0x378",
        "chainId": "0x515"
      },
      "additionalContracts": [],
      "isFixedGasLimit": false
    },
    {
      "hash": "0x3eea82b160ef7ce763b08779cfd1887ee66ed963214dd17a098fe3443a29d04e",
      "transactionType": "CALL",
      "contractName": "MockLaunchERC20",
      "contractAddress": "0x3cc7840140ff4cf8d4ae3176f9d9090a378cfab7",
      "function": "approve(address,uint256)",
      "arguments": [
        "0x71c7EAA56391147b8D05C1FE39B93Eb8d8630366",
        "115792089237316195423570985008687907853269984665640564039457584007913129639935"
      ],
      "transaction": {
        "from": "0x4b992f2fbf714c0fcbb23bac5130ace48cad00cd",
        "to": "0x3cc7840140ff4cf8d4ae3176f9d9090a378cfab7",
        "gas": "0xfbda",
        "value": "0x0",
        "input": "0x095ea7b300000000000000000000000071c7eaa56391147b8d05c1fe39b93eb8d8630366ffffffffffffffffffffffffffffffffffffffffffffffffffffffffffffffff",
        "nonce": "0x379",
        "chainId": "0x515"
      },
      "additionalContracts": [],
      "isFixedGasLimit": false
    },
    {
      "hash": "0xa82dda67825ae25d2c1abbad77db79ad243b55464170a096ee8570c8d4ea620c",
      "transactionType": "CALL",
      "contractName": "MockLaunchERC20",
      "contractAddress": "0xbe6c8171004b70a1d9694536a4891dce86e4b44e",
      "function": "approve(address,uint256)",
      "arguments": [
        "0x71c7EAA56391147b8D05C1FE39B93Eb8d8630366",
        "115792089237316195423570985008687907853269984665640564039457584007913129639935"
      ],
      "transaction": {
        "from": "0x4b992f2fbf714c0fcbb23bac5130ace48cad00cd",
        "to": "0xbe6c8171004b70a1d9694536a4891dce86e4b44e",
        "gas": "0xfbda",
        "value": "0x0",
        "input": "0x095ea7b300000000000000000000000071c7eaa56391147b8d05c1fe39b93eb8d8630366ffffffffffffffffffffffffffffffffffffffffffffffffffffffffffffffff",
        "nonce": "0x37a",
        "chainId": "0x515"
      },
      "additionalContracts": [],
      "isFixedGasLimit": false
    },
    {
      "hash": "0xffa96678499e93ff412569003969d086750b0fb0bf4d750fb6aa32ac62e68806",
      "transactionType": "CALL",
      "contractName": "MockLaunchERC20",
      "contractAddress": "0x3cc7840140ff4cf8d4ae3176f9d9090a378cfab7",
      "function": "approve(address,uint256)",
      "arguments": [
        "0xC7E2B73632a9fCe139E7dE31e74f49EF4ECD66Ae",
        "115792089237316195423570985008687907853269984665640564039457584007913129639935"
      ],
      "transaction": {
        "from": "0x4b992f2fbf714c0fcbb23bac5130ace48cad00cd",
        "to": "0x3cc7840140ff4cf8d4ae3176f9d9090a378cfab7",
        "gas": "0xfbda",
        "value": "0x0",
        "input": "0x095ea7b3000000000000000000000000c7e2b73632a9fce139e7de31e74f49ef4ecd66aeffffffffffffffffffffffffffffffffffffffffffffffffffffffffffffffff",
        "nonce": "0x37b",
        "chainId": "0x515"
      },
      "additionalContracts": [],
      "isFixedGasLimit": false
    },
    {
      "hash": "0x8958668ad7beb91ab43e71e78c7dfdcae779f2c7e5a9e5d755de9e780dd8c147",
      "transactionType": "CALL",
      "contractName": "MockLaunchERC20",
      "contractAddress": "0xbe6c8171004b70a1d9694536a4891dce86e4b44e",
      "function": "approve(address,uint256)",
      "arguments": [
        "0xC7E2B73632a9fCe139E7dE31e74f49EF4ECD66Ae",
        "115792089237316195423570985008687907853269984665640564039457584007913129639935"
      ],
      "transaction": {
        "from": "0x4b992f2fbf714c0fcbb23bac5130ace48cad00cd",
        "to": "0xbe6c8171004b70a1d9694536a4891dce86e4b44e",
        "gas": "0xfbda",
        "value": "0x0",
        "input": "0x095ea7b3000000000000000000000000c7e2b73632a9fce139e7de31e74f49ef4ecd66aeffffffffffffffffffffffffffffffffffffffffffffffffffffffffffffffff",
        "nonce": "0x37c",
        "chainId": "0x515"
      },
      "additionalContracts": [],
      "isFixedGasLimit": false
    },
    {
      "hash": "0x55d3a3d23b4c804e354c910ff2d127b1f4958ed602a629b378273336755da118",
      "transactionType": "CALL",
      "contractName": "MockLaunchERC20",
      "contractAddress": "0x3cc7840140ff4cf8d4ae3176f9d9090a378cfab7",
      "function": "approve(address,uint256)",
      "arguments": [
        "0xb664e46c230951da4389E195188AA4203FA76AF0",
        "115792089237316195423570985008687907853269984665640564039457584007913129639935"
      ],
      "transaction": {
        "from": "0x4b992f2fbf714c0fcbb23bac5130ace48cad00cd",
        "to": "0x3cc7840140ff4cf8d4ae3176f9d9090a378cfab7",
        "gas": "0xfbda",
        "value": "0x0",
        "input": "0x095ea7b3000000000000000000000000b664e46c230951da4389e195188aa4203fa76af0ffffffffffffffffffffffffffffffffffffffffffffffffffffffffffffffff",
        "nonce": "0x37d",
        "chainId": "0x515"
      },
      "additionalContracts": [],
      "isFixedGasLimit": false
    },
    {
      "hash": "0xbaa805b41d0797bd0eb9141f9c4262e73c5ddbaf1fc736274e4f441fb824e33e",
      "transactionType": "CALL",
      "contractName": "MockLaunchERC20",
      "contractAddress": "0xbe6c8171004b70a1d9694536a4891dce86e4b44e",
      "function": "approve(address,uint256)",
      "arguments": [
        "0xb664e46c230951da4389E195188AA4203FA76AF0",
        "115792089237316195423570985008687907853269984665640564039457584007913129639935"
      ],
      "transaction": {
        "from": "0x4b992f2fbf714c0fcbb23bac5130ace48cad00cd",
        "to": "0xbe6c8171004b70a1d9694536a4891dce86e4b44e",
        "gas": "0xfbda",
        "value": "0x0",
        "input": "0x095ea7b3000000000000000000000000b664e46c230951da4389e195188aa4203fa76af0ffffffffffffffffffffffffffffffffffffffffffffffffffffffffffffffff",
        "nonce": "0x37e",
        "chainId": "0x515"
      },
      "additionalContracts": [],
      "isFixedGasLimit": false
    },
    {
      "hash": "0x4a3a2ec5b8b6729513fda5ce28ca6e9df1b8c1e9a8ecb8025ed7bb8c1b6e57d8",
      "transactionType": "CALL",
      "contractName": null,
      "contractAddress": "0x53edcb5facceede8a1eac2237daebf7fc983a574",
      "function": "createLaunch((address,address,uint24,int24,address),(uint64,uint64,address,int24),(uint8,uint64,uint64,uint16,uint256,uint256,uint64,int24,uint64,bool,uint256[],uint16[]))",
      "arguments": [
        "(0x3cc7840140ff4cF8d4ae3176f9d9090A378cFaB7, 0xbe6c8171004B70A1d9694536A4891DCe86E4B44e, 3000, 60, 0x8165120E7C04bD5F52dF16d90365f87C1DFe80c0)",
        "(1773302740, 1773389140, 0xbe6c8171004B70A1d9694536A4891DCe86E4B44e, 0)",
        "(1, 0, 1, 1, 1, 1000000000000000, 30, 0, 0, false, [2000000000000, 4000000000000], [2000, 4000])"
      ],
      "transaction": {
        "from": "0x4b992f2fbf714c0fcbb23bac5130ace48cad00cd",
        "to": "0x53edcb5facceede8a1eac2237daebf7fc983a574",
        "gas": "0x87fc4",
        "value": "0x0",
        "input": "0x2bd2b7cc0000000000000000000000003cc7840140ff4cf8d4ae3176f9d9090a378cfab7000000000000000000000000be6c8171004b70a1d9694536a4891dce86e4b44e0000000000000000000000000000000000000000000000000000000000000bb8000000000000000000000000000000000000000000000000000000000000003c0000000000000000000000008165120e7c04bd5f52df16d90365f87c1dfe80c00000000000000000000000000000000000000000000000000000000069b273d40000000000000000000000000000000000000000000000000000000069b3c554000000000000000000000000be6c8171004b70a1d9694536a4891dce86e4b44e000000000000000000000000000000000000000000000000000000000000000000000000000000000000000000000000000000000000000000000000000001400000000000000000000000000000000000000000000000000000000000000001000000000000000000000000000000000000000000000000000000000000000000000000000000000000000000000000000000000000000000000000000000010000000000000000000000000000000000000000000000000000000000000001000000000000000000000000000000000000000000000000000000000000000100000000000000000000000000000000000000000000000000038d7ea4c68000000000000000000000000000000000000000000000000000000000000000001e000000000000000000000000000000000000000000000000000000000000000000000000000000000000000000000000000000000000000000000000000000000000000000000000000000000000000000000000000000000000000000000000000000000000000000000000000000000000000000000000000000000000018000000000000000000000000000000000000000000000000000000000000001e00000000000000000000000000000000000000000000000000000000000000002000000000000000000000000000000000000000000000000000001d1a94a2000000000000000000000000000000000000000000000000000000003a352944000000000000000000000000000000000000000000000000000000000000000000200000000000000000000000000000000000000000000000000000000000007d00000000000000000000000000000000000000000000000000000000000000fa0",
        "nonce": "0x37f",
        "chainId": "0x515"
      },
      "additionalContracts": [],
      "isFixedGasLimit": false
    },
    {
      "hash": "0x38a56020e31f131d03c8bb86773089903b3e50e23ab88e94a2cb4a89eec60618",
      "transactionType": "CALL",
      "contractName": null,
      "contractAddress": "0x00b036b58a818b1bc34d502d3fe730db729e62ac",
      "function": "initialize((address,address,uint24,int24,address),uint160)",
      "arguments": [
        "(0x3cc7840140ff4cF8d4ae3176f9d9090A378cFaB7, 0xbe6c8171004B70A1d9694536A4891DCe86E4B44e, 3000, 60, 0x8165120E7C04bD5F52dF16d90365f87C1DFe80c0)",
        "79228162514264337593543950336"
      ],
      "transaction": {
        "from": "0x4b992f2fbf714c0fcbb23bac5130ace48cad00cd",
        "to": "0x00b036b58a818b1bc34d502d3fe730db729e62ac",
        "gas": "0x1277b",
        "value": "0x0",
        "input": "0x6276cbbe0000000000000000000000003cc7840140ff4cf8d4ae3176f9d9090a378cfab7000000000000000000000000be6c8171004b70a1d9694536a4891dce86e4b44e0000000000000000000000000000000000000000000000000000000000000bb8000000000000000000000000000000000000000000000000000000000000003c0000000000000000000000008165120e7c04bd5f52df16d90365f87c1dfe80c00000000000000000000000000000000000000001000000000000000000000000",
        "nonce": "0x380",
        "chainId": "0x515"
      },
      "additionalContracts": [],
      "isFixedGasLimit": false
    },
    {
      "hash": "0x2b1d7a3071dbf20ad1695f8cf1ff51190c9c5c1745b23264610011d3d75a0ed8",
      "transactionType": "CALL",
      "contractName": "PoolModifyLiquidityTest",
      "contractAddress": "0x71c7eaa56391147b8d05c1fe39b93eb8d8630366",
      "function": "modifyLiquidity((address,address,uint24,int24,address),(int24,int24,int256,bytes32),bytes)",
      "arguments": [
        "(0x3cc7840140ff4cF8d4ae3176f9d9090A378cFaB7, 0xbe6c8171004B70A1d9694536A4891DCe86E4B44e, 3000, 60, 0x8165120E7C04bD5F52dF16d90365f87C1DFe80c0)",
        "(-120, 120, 1000000000000000000, 0x0000000000000000000000000000000000000000000000000000000000000000)",
        "0x"
      ],
      "transaction": {
        "from": "0x4b992f2fbf714c0fcbb23bac5130ace48cad00cd",
        "to": "0x71c7eaa56391147b8d05c1fe39b93eb8d8630366",
        "gas": "0x6a1be",
        "value": "0x0",
        "input": "0x5a6bcfda0000000000000000000000003cc7840140ff4cf8d4ae3176f9d9090a378cfab7000000000000000000000000be6c8171004b70a1d9694536a4891dce86e4b44e0000000000000000000000000000000000000000000000000000000000000bb8000000000000000000000000000000000000000000000000000000000000003c0000000000000000000000008165120e7c04bd5f52df16d90365f87c1dfe80c0ffffffffffffffffffffffffffffffffffffffffffffffffffffffffffffff8800000000000000000000000000000000000000000000000000000000000000780000000000000000000000000000000000000000000000000de0b6b3a7640000000000000000000000000000000000000000000000000000000000000000000000000000000000000000000000000000000000000000000000000000000001400000000000000000000000000000000000000000000000000000000000000000",
        "nonce": "0x381",
        "chainId": "0x515"
      },
      "additionalContracts": [],
      "isFixedGasLimit": false
    },
    {
      "hash": "0xb0f3f46419f4792799b77d41580b6fac2fa336ec4c9e6d71c8c3d1bcae47765c",
      "transactionType": "CALL",
      "contractName": null,
      "contractAddress": "0x53edcb5facceede8a1eac2237daebf7fc983a574",
      "function": "depositLockedLiquidity(bytes32,uint256,uint256)",
      "arguments": [
        "0x2fefb37258e0ec81c6307c81f8bdfaa5e5d126fdf836a8a4b9ae8d3920f55a59",
        "1000000000000000000000",
        "1000000000000000000000"
      ],
      "transaction": {
        "from": "0x4b992f2fbf714c0fcbb23bac5130ace48cad00cd",
        "to": "0x53edcb5facceede8a1eac2237daebf7fc983a574",
        "gas": "0x4c5c6",
        "value": "0x0",
        "input": "0x365d3b202fefb37258e0ec81c6307c81f8bdfaa5e5d126fdf836a8a4b9ae8d3920f55a5900000000000000000000000000000000000000000000003635c9adc5dea0000000000000000000000000000000000000000000000000003635c9adc5dea00000",
        "nonce": "0x382",
        "chainId": "0x515"
      },
      "additionalContracts": [],
      "isFixedGasLimit": false
    },
    {
      "hash": "0x1acf2b294684837a8c88b23f4960992659f5cbe088783af5731631fa672bff30",
      "transactionType": "CALL",
      "contractName": "PoolSwapTest",
      "contractAddress": "0xc7e2b73632a9fce139e7de31e74f49ef4ecd66ae",
      "function": "swap((address,address,uint24,int24,address),(bool,int256,uint160),(bool,bool),bytes)",
      "arguments": [
        "(0x3cc7840140ff4cF8d4ae3176f9d9090A378cFaB7, 0xbe6c8171004B70A1d9694536A4891DCe86E4B44e, 3000, 60, 0x8165120E7C04bD5F52dF16d90365f87C1DFe80c0)",
        "(true, -500000000000000, 4295128740)",
        "(false, false)",
        "0x"
      ],
      "transaction": {
        "from": "0x4b992f2fbf714c0fcbb23bac5130ace48cad00cd",
        "to": "0xc7e2b73632a9fce139e7de31e74f49ef4ecd66ae",
        "gas": "0x4a3f6",
        "value": "0x0",
        "input": "0x2229d0b40000000000000000000000003cc7840140ff4cf8d4ae3176f9d9090a378cfab7000000000000000000000000be6c8171004b70a1d9694536a4891dce86e4b44e0000000000000000000000000000000000000000000000000000000000000bb8000000000000000000000000000000000000000000000000000000000000003c0000000000000000000000008165120e7c04bd5f52df16d90365f87c1dfe80c00000000000000000000000000000000000000000000000000000000000000001fffffffffffffffffffffffffffffffffffffffffffffffffffe3940ad9cc00000000000000000000000000000000000000000000000000000000001000276a40000000000000000000000000000000000000000000000000000000000000000000000000000000000000000000000000000000000000000000000000000000000000000000000000000000000000000000000000000000000000000000001600000000000000000000000000000000000000000000000000000000000000000",
        "nonce": "0x383",
        "chainId": "0x515"
      },
      "additionalContracts": [],
      "isFixedGasLimit": false
    },
    {
      "hash": "0xd191348d8b76bc7a28c971c5a98e86760bf09d5954795c0d4bd109cab8915d3d",
      "transactionType": "CALL",
      "contractName": null,
      "contractAddress": "0x53edcb5facceede8a1eac2237daebf7fc983a574",
      "function": "advance(bytes32)",
      "arguments": [
        "0x2fefb37258e0ec81c6307c81f8bdfaa5e5d126fdf836a8a4b9ae8d3920f55a59"
      ],
      "transaction": {
        "from": "0x4b992f2fbf714c0fcbb23bac5130ace48cad00cd",
        "to": "0x53edcb5facceede8a1eac2237daebf7fc983a574",
        "gas": "0x1941c",
        "value": "0x0",
        "input": "0x7817f4762fefb37258e0ec81c6307c81f8bdfaa5e5d126fdf836a8a4b9ae8d3920f55a59",
        "nonce": "0x384",
        "chainId": "0x515"
      },
      "additionalContracts": [],
      "isFixedGasLimit": false
    },
    {
      "hash": "0x37bfe50cf02862eafe44716f778ab8c338a6b81a28fcb8b516b8f60dac2744d8",
      "transactionType": "CALL",
      "contractName": null,
      "contractAddress": "0x53edcb5facceede8a1eac2237daebf7fc983a574",
      "function": "withdrawUnlockedLiquidity(bytes32,address,uint256,uint256)",
      "arguments": [
        "0x2fefb37258e0ec81c6307c81f8bdfaa5e5d126fdf836a8a4b9ae8d3920f55a59",
        "0x4b992F2Fbf714C0fCBb23baC5130Ace48CaD00cd",
        "200000000000000000000",
        "200000000000000000000"
      ],
      "transaction": {
        "from": "0x4b992f2fbf714c0fcbb23bac5130ace48cad00cd",
        "to": "0x53edcb5facceede8a1eac2237daebf7fc983a574",
        "gas": "0x23115",
        "value": "0x0",
        "input": "0xa7bd5b892fefb37258e0ec81c6307c81f8bdfaa5e5d126fdf836a8a4b9ae8d3920f55a590000000000000000000000004b992f2fbf714c0fcbb23bac5130ace48cad00cd00000000000000000000000000000000000000000000000ad78ebc5ac620000000000000000000000000000000000000000000000000000ad78ebc5ac6200000",
        "nonce": "0x385",
        "chainId": "0x515"
      },
      "additionalContracts": [],
      "isFixedGasLimit": false
    }
  ],
  "receipts": [
    {
      "status": "0x1",
      "cumulativeGasUsed": "0xc6413",
      "logs": [
        {
          "address": "0x3cc7840140ff4cf8d4ae3176f9d9090a378cfab7",
          "topics": [
            "0xddf252ad1be2c89b69c2b068fc378daa952ba7f163c4a11628f55a4df523b3ef",
            "0x0000000000000000000000000000000000000000000000000000000000000000",
            "0x0000000000000000000000004b992f2fbf714c0fcbb23bac5130ace48cad00cd"
          ],
          "data": "0x000000000000000000000000000000000000000000084595161401484a000000",
          "blockHash": "0x6e11a168d3821193667263584b18fb050964fef1eaedbc390181fff19bc17d97",
          "blockNumber": "0x2c4c6a0",
          "blockTimestamp": "0x69b273ec",
          "transactionHash": "0xf178c474cb7262e0562926c785557c32ecc757181f0bf3497806ca69b1ee008b",
          "transactionIndex": "0x4",
          "logIndex": "0x2",
          "removed": false
        }
      ],
      "logsBloom": "0x00000000000000000000000000000000000000000000000000000000000000000000000000000000000000000000000000000002000000000000000000000000000000000080000000000008000000000400000000000000000100000000000000000000020000000000000800020800000000000000000000000010000000000000000000000000000000000000000000000000000000000000000000000000000000000000000000000000000000000000000000000000000000000000000000000002000000000000000000000000000000000000000000000000000020000000000000000000000000000000000000000000000000000000000000000000",
      "type": "0x2",
      "transactionHash": "0xf178c474cb7262e0562926c785557c32ecc757181f0bf3497806ca69b1ee008b",
      "transactionIndex": "0x4",
      "blockHash": "0x6e11a168d3821193667263584b18fb050964fef1eaedbc390181fff19bc17d97",
      "blockNumber": "0x2c4c6a0",
      "gasUsed": "0x879f5",
      "effectiveGasPrice": "0x7a121",
      "blobGasUsed": "0xac5d0",
      "from": "0x4b992f2fbf714c0fcbb23bac5130ace48cad00cd",
      "to": null,
      "contractAddress": "0x3cc7840140ff4cf8d4ae3176f9d9090a378cfab7",
      "daFootprintGasScalar": "0x190",
      "l1BaseFeeScalar": "0x7d0",
      "l1BlobBaseFee": "0x1",
      "l1BlobBaseFeeScalar": "0xdbba0",
      "l1Fee": "0x9bd",
      "l1GasPrice": "0x10",
      "l1GasUsed": "0x6e5e"
    },
    {
      "status": "0x1",
      "cumulativeGasUsed": "0x14de14",
      "logs": [
        {
          "address": "0xbe6c8171004b70a1d9694536a4891dce86e4b44e",
          "topics": [
            "0xddf252ad1be2c89b69c2b068fc378daa952ba7f163c4a11628f55a4df523b3ef",
            "0x0000000000000000000000000000000000000000000000000000000000000000",
            "0x0000000000000000000000004b992f2fbf714c0fcbb23bac5130ace48cad00cd"
          ],
          "data": "0x000000000000000000000000000000000000000000084595161401484a000000",
          "blockHash": "0x6e11a168d3821193667263584b18fb050964fef1eaedbc390181fff19bc17d97",
          "blockNumber": "0x2c4c6a0",
          "blockTimestamp": "0x69b273ec",
          "transactionHash": "0x79ea5db22362ccf8c54f686ce1220e04feafcfcfb88d6a172459490db1912433",
          "transactionIndex": "0x5",
          "logIndex": "0x3",
          "removed": false
        }
      ],
      "logsBloom": "0x00000000000000000000000000000000000000000000000000000000000000000000000000100000000000000000000000000002000000000000000000000000000000000000000000000008080000000000000000000000000100000000000000000000020000000000000000020800000000000000000000000010000000000000000000000000000000000000000000000000000000000000000000000000000000000000000000000000000000000000000000000000000000000000000000000002000000000000000000000000000000000000000000000000000020000000000000000000000000000200000000000000000000000000000000000000",
      "type": "0x2",
      "transactionHash": "0x79ea5db22362ccf8c54f686ce1220e04feafcfcfb88d6a172459490db1912433",
      "transactionIndex": "0x5",
      "blockHash": "0x6e11a168d3821193667263584b18fb050964fef1eaedbc390181fff19bc17d97",
      "blockNumber": "0x2c4c6a0",
      "gasUsed": "0x87a01",
      "effectiveGasPrice": "0x7a121",
      "blobGasUsed": "0xac760",
      "from": "0x4b992f2fbf714c0fcbb23bac5130ace48cad00cd",
      "to": null,
      "contractAddress": "0xbe6c8171004b70a1d9694536a4891dce86e4b44e",
      "daFootprintGasScalar": "0x190",
      "l1BaseFeeScalar": "0x7d0",
      "l1BlobBaseFee": "0x1",
      "l1BlobBaseFeeScalar": "0xdbba0",
      "l1Fee": "0x9be",
      "l1GasPrice": "0x10",
      "l1GasUsed": "0x6e6c"
    },
    {
      "status": "0x1",
      "cumulativeGasUsed": "0x2b22e5",
      "logs": [],
      "logsBloom": "0x00000000000000000000000000000000000000000000000000000000000000000000000000000000000000000000000000000000000000000000000000000000000000000000000000000000000000000000000000000000000000000000000000000000000000000000000000000000000000000000000000000000000000000000000000000000000000000000000000000000000000000000000000000000000000000000000000000000000000000000000000000000000000000000000000000000000000000000000000000000000000000000000000000000000000000000000000000000000000000000000000000000000000000000000000000000",
      "type": "0x2",
      "transactionHash": "0xde307705380547ad2ba12bf527af5c8a14a31f89a576e4e7a98f255216c2985d",
      "transactionIndex": "0x8",
      "blockHash": "0x6e11a168d3821193667263584b18fb050964fef1eaedbc390181fff19bc17d97",
      "blockNumber": "0x2c4c6a0",
      "gasUsed": "0x13646d",
      "effectiveGasPrice": "0x7a121",
      "blobGasUsed": "0x12eee0",
      "from": "0x4b992f2fbf714c0fcbb23bac5130ace48cad00cd",
      "to": null,
      "contractAddress": "0x71c7eaa56391147b8d05c1fe39b93eb8d8630366",
      "daFootprintGasScalar": "0x190",
      "l1BaseFeeScalar": "0x7d0",
      "l1BlobBaseFee": "0x1",
      "l1BlobBaseFeeScalar": "0xdbba0",
      "l1Fee": "0x111c",
      "l1GasPrice": "0x10",
      "l1GasUsed": "0xc1ea"
    },
    {
      "status": "0x1",
      "cumulativeGasUsed": "0x3f8eae",
      "logs": [],
      "logsBloom": "0x00000000000000000000000000000000000000000000000000000000000000000000000000000000000000000000000000000000000000000000000000000000000000000000000000000000000000000000000000000000000000000000000000000000000000000000000000000000000000000000000000000000000000000000000000000000000000000000000000000000000000000000000000000000000000000000000000000000000000000000000000000000000000000000000000000000000000000000000000000000000000000000000000000000000000000000000000000000000000000000000000000000000000000000000000000000",
      "type": "0x2",
      "transactionHash": "0x1a98bee8c8f145e071a828a3234253f3fabba22d24cdfed225d94c01fd7c7c78",
      "transactionIndex": "0x9",
      "blockHash": "0x6e11a168d3821193667263584b18fb050964fef1eaedbc390181fff19bc17d97",
      "blockNumber": "0x2c4c6a0",
      "gasUsed": "0x146bc9",
      "effectiveGasPrice": "0x7a121",
      "blobGasUsed": "0x11e540",
      "from": "0x4b992f2fbf714c0fcbb23bac5130ace48cad00cd",
      "to": null,
      "contractAddress": "0xc7e2b73632a9fce139e7de31e74f49ef4ecd66ae",
      "daFootprintGasScalar": "0x190",
      "l1BaseFeeScalar": "0x7d0",
      "l1BlobBaseFee": "0x1",
      "l1BlobBaseFeeScalar": "0xdbba0",
      "l1Fee": "0x102b",
      "l1GasPrice": "0x10",
      "l1GasUsed": "0xb740"
    },
    {
      "status": "0x1",
      "cumulativeGasUsed": "0x404505",
      "logs": [
        {
          "address": "0x3cc7840140ff4cf8d4ae3176f9d9090a378cfab7",
          "topics": [
            "0x8c5be1e5ebec7d5bd14f71427d1e84f3dd0314c0f7b2291e5b200ac8c7c3b925",
            "0x0000000000000000000000004b992f2fbf714c0fcbb23bac5130ace48cad00cd",
            "0x00000000000000000000000071c7eaa56391147b8d05c1fe39b93eb8d8630366"
          ],
          "data": "0xffffffffffffffffffffffffffffffffffffffffffffffffffffffffffffffff",
          "blockHash": "0x6e11a168d3821193667263584b18fb050964fef1eaedbc390181fff19bc17d97",
          "blockNumber": "0x2c4c6a0",
          "blockTimestamp": "0x69b273ec",
          "transactionHash": "0x3eea82b160ef7ce763b08779cfd1887ee66ed963214dd17a098fe3443a29d04e",
          "transactionIndex": "0xa",
          "logIndex": "0x6",
          "removed": false
        }
      ],
      "logsBloom": "0x00000000000000000100000000000000000000000000000000000000000000000000000000000000000000000000000000000002000000000000000000200000000000000080000000000000000000000400000000000000000100000000000000000000000000000000000800020000000000000000000000000000000000000000000000000000000000000000000000000000000000000000000000000000820000000000000000000000000000000000000000000000000000000000000000000000000000800000000000000000000000000000000000000000000000000010000000000000000000000000000000000000000000000000000000000000",
      "type": "0x2",
      "transactionHash": "0x3eea82b160ef7ce763b08779cfd1887ee66ed963214dd17a098fe3443a29d04e",
      "transactionIndex": "0xa",
      "blockHash": "0x6e11a168d3821193667263584b18fb050964fef1eaedbc390181fff19bc17d97",
      "blockNumber": "0x2c4c6a0",
      "gasUsed": "0xb657",
      "effectiveGasPrice": "0x7a121",
      "blobGasUsed": "0x9c40",
      "from": "0x4b992f2fbf714c0fcbb23bac5130ace48cad00cd",
      "to": "0x3cc7840140ff4cf8d4ae3176f9d9090a378cfab7",
      "contractAddress": null,
      "daFootprintGasScalar": "0x190",
      "l1BaseFeeScalar": "0x7d0",
      "l1BlobBaseFee": "0x1",
      "l1BlobBaseFeeScalar": "0xdbba0",
      "l1Fee": "0x8d",
      "l1GasPrice": "0x10",
      "l1GasUsed": "0x640"
    },
    {
      "status": "0x1",
      "cumulativeGasUsed": "0x40fb5c",
      "logs": [
        {
          "address": "0xbe6c8171004b70a1d9694536a4891dce86e4b44e",
          "topics": [
            "0x8c5be1e5ebec7d5bd14f71427d1e84f3dd0314c0f7b2291e5b200ac8c7c3b925",
            "0x0000000000000000000000004b992f2fbf714c0fcbb23bac5130ace48cad00cd",
            "0x00000000000000000000000071c7eaa56391147b8d05c1fe39b93eb8d8630366"
          ],
          "data": "0xffffffffffffffffffffffffffffffffffffffffffffffffffffffffffffffff",
          "blockHash": "0x6e11a168d3821193667263584b18fb050964fef1eaedbc390181fff19bc17d97",
          "blockNumber": "0x2c4c6a0",
          "blockTimestamp": "0x69b273ec",
          "transactionHash": "0xa82dda67825ae25d2c1abbad77db79ad243b55464170a096ee8570c8d4ea620c",
          "transactionIndex": "0xb",
          "logIndex": "0x7",
          "removed": false
        }
      ],
      "logsBloom": "0x00000000000000000100000000000000000000000000000000000000000000000000000000100000000000000000000000000002000000000000000000200000000000000000000000000000080000000000000000000000000100000000000000000000000000000000000000020000000000000000000000000000000000000000000000000000000000000000000000000000000000000000000000000000820000000000000000000000000000000000000000000000000000000000000000000000000000800000000000000000000000000000000000000000000000000010000000000000000000000200000000000000000000000000000000000000",
      "type": "0x2",
      "transactionHash": "0xa82dda67825ae25d2c1abbad77db79ad243b55464170a096ee8570c8d4ea620c",
      "transactionIndex": "0xb",
      "blockHash": "0x6e11a168d3821193667263584b18fb050964fef1eaedbc390181fff19bc17d97",
      "blockNumber": "0x2c4c6a0",
      "gasUsed": "0xb657",
      "effectiveGasPrice": "0x7a121",
      "blobGasUsed": "0x9c40",
      "from": "0x4b992f2fbf714c0fcbb23bac5130ace48cad00cd",
      "to": "0xbe6c8171004b70a1d9694536a4891dce86e4b44e",
      "contractAddress": null,
      "daFootprintGasScalar": "0x190",
      "l1BaseFeeScalar": "0x7d0",
      "l1BlobBaseFee": "0x1",
      "l1BlobBaseFeeScalar": "0xdbba0",
      "l1Fee": "0x8d",
      "l1GasPrice": "0x10",
      "l1GasUsed": "0x640"
    },
    {
      "status": "0x1",
      "cumulativeGasUsed": "0x41b1b3",
      "logs": [
        {
          "address": "0x3cc7840140ff4cf8d4ae3176f9d9090a378cfab7",
          "topics": [
            "0x8c5be1e5ebec7d5bd14f71427d1e84f3dd0314c0f7b2291e5b200ac8c7c3b925",
            "0x0000000000000000000000004b992f2fbf714c0fcbb23bac5130ace48cad00cd",
            "0x000000000000000000000000c7e2b73632a9fce139e7de31e74f49ef4ecd66ae"
          ],
          "data": "0xffffffffffffffffffffffffffffffffffffffffffffffffffffffffffffffff",
          "blockHash": "0x6e11a168d3821193667263584b18fb050964fef1eaedbc390181fff19bc17d97",
          "blockNumber": "0x2c4c6a0",
          "blockTimestamp": "0x69b273ec",
          "transactionHash": "0xffa96678499e93ff412569003969d086750b0fb0bf4d750fb6aa32ac62e68806",
          "transactionIndex": "0xc",
          "logIndex": "0x8",
          "removed": false
        }
      ],
      "logsBloom": "0x00000000000000000000000000000000000000000000000000000000000000000000000000000000000000000000000008000002000000000000000000200000000000000080000000000000000000000400000000000000000100000000000000000000000000000000000800020000000000000000000000000000000000000000000000000000000000000000000000000000000000000002000000000000020000000000000000000000000000000000000000000000000000000000000000000000000000000000000000000000000000000000000000000000000000000010001000000000000000000000000000000000000000000000000000000000",
      "type": "0x2",
      "transactionHash": "0xffa96678499e93ff412569003969d086750b0fb0bf4d750fb6aa32ac62e68806",
      "transactionIndex": "0xc",
      "blockHash": "0x6e11a168d3821193667263584b18fb050964fef1eaedbc390181fff19bc17d97",
      "blockNumber": "0x2c4c6a0",
      "gasUsed": "0xb657",
      "effectiveGasPrice": "0x7a121",
      "blobGasUsed": "0x9c40",
      "from": "0x4b992f2fbf714c0fcbb23bac5130ace48cad00cd",
      "to": "0x3cc7840140ff4cf8d4ae3176f9d9090a378cfab7",
      "contractAddress": null,
      "daFootprintGasScalar": "0x190",
      "l1BaseFeeScalar": "0x7d0",
      "l1BlobBaseFee": "0x1",
      "l1BlobBaseFeeScalar": "0xdbba0",
      "l1Fee": "0x8d",
      "l1GasPrice": "0x10",
      "l1GasUsed": "0x640"
    },
    {
      "status": "0x1",
      "cumulativeGasUsed": "0x43d83c",
      "logs": [
        {
          "address": "0xbe6c8171004b70a1d9694536a4891dce86e4b44e",
          "topics": [
            "0x8c5be1e5ebec7d5bd14f71427d1e84f3dd0314c0f7b2291e5b200ac8c7c3b925",
            "0x0000000000000000000000004b992f2fbf714c0fcbb23bac5130ace48cad00cd",
            "0x000000000000000000000000c7e2b73632a9fce139e7de31e74f49ef4ecd66ae"
          ],
          "data": "0xffffffffffffffffffffffffffffffffffffffffffffffffffffffffffffffff",
          "blockHash": "0x6e11a168d3821193667263584b18fb050964fef1eaedbc390181fff19bc17d97",
          "blockNumber": "0x2c4c6a0",
          "blockTimestamp": "0x69b273ec",
          "transactionHash": "0x8958668ad7beb91ab43e71e78c7dfdcae779f2c7e5a9e5d755de9e780dd8c147",
          "transactionIndex": "0xe",
          "logIndex": "0xa",
          "removed": false
        }
      ],
      "logsBloom": "0x00000000000000000000000000000000000000000000000000000000000000000000000000100000000000000000000008000002000000000000000000200000000000000000000000000000080000000000000000000000000100000000000000000000000000000000000000020000000000000000000000000000000000000000000000000000000000000000000000000000000000000002000000000000020000000000000000000000000000000000000000000000000000000000000000000000000000000000000000000000000000000000000000000000000000000010001000000000000000000200000000000000000000000000000000000000",
      "type": "0x2",
      "transactionHash": "0x8958668ad7beb91ab43e71e78c7dfdcae779f2c7e5a9e5d755de9e780dd8c147",
      "transactionIndex": "0xe",
      "blockHash": "0x6e11a168d3821193667263584b18fb050964fef1eaedbc390181fff19bc17d97",
      "blockNumber": "0x2c4c6a0",
      "gasUsed": "0xb657",
      "effectiveGasPrice": "0x7a121",
      "blobGasUsed": "0x9c40",
      "from": "0x4b992f2fbf714c0fcbb23bac5130ace48cad00cd",
      "to": "0xbe6c8171004b70a1d9694536a4891dce86e4b44e",
      "contractAddress": null,
      "daFootprintGasScalar": "0x190",
      "l1BaseFeeScalar": "0x7d0",
      "l1BlobBaseFee": "0x1",
      "l1BlobBaseFeeScalar": "0xdbba0",
      "l1Fee": "0x8d",
      "l1GasPrice": "0x10",
      "l1GasUsed": "0x640"
    },
    {
      "status": "0x1",
      "cumulativeGasUsed": "0x448e93",
      "logs": [
        {
          "address": "0x3cc7840140ff4cf8d4ae3176f9d9090a378cfab7",
          "topics": [
            "0x8c5be1e5ebec7d5bd14f71427d1e84f3dd0314c0f7b2291e5b200ac8c7c3b925",
            "0x0000000000000000000000004b992f2fbf714c0fcbb23bac5130ace48cad00cd",
            "0x000000000000000000000000b664e46c230951da4389e195188aa4203fa76af0"
          ],
          "data": "0xffffffffffffffffffffffffffffffffffffffffffffffffffffffffffffffff",
          "blockHash": "0x6e11a168d3821193667263584b18fb050964fef1eaedbc390181fff19bc17d97",
          "blockNumber": "0x2c4c6a0",
          "blockTimestamp": "0x69b273ec",
          "transactionHash": "0x55d3a3d23b4c804e354c910ff2d127b1f4958ed602a629b378273336755da118",
          "transactionIndex": "0xf",
          "logIndex": "0xb",
          "removed": false
        }
      ],
      "logsBloom": "0x00000000000000000000000000000000000000000000000000000000000000000000000000000000000000000000000000000002000000000000000000200000000000000080000000000000000000000400000000000000000100000000000000000000000000000000000800020000000000000000000000000000000000000000000000000000040000000000000000000000000000000000000000000000020000000000000000000000000000000000000000000000004000000000000000000000000000000000000000000000000000000000000000000000000000000010000000000000000000080000000000000000000000000000000000000000",
      "type": "0x2",
      "transactionHash": "0x55d3a3d23b4c804e354c910ff2d127b1f4958ed602a629b378273336755da118",
      "transactionIndex": "0xf",
      "blockHash": "0x6e11a168d3821193667263584b18fb050964fef1eaedbc390181fff19bc17d97",
      "blockNumber": "0x2c4c6a0",
      "gasUsed": "0xb657",
      "effectiveGasPrice": "0x7a121",
      "blobGasUsed": "0x9c40",
      "from": "0x4b992f2fbf714c0fcbb23bac5130ace48cad00cd",
      "to": "0x3cc7840140ff4cf8d4ae3176f9d9090a378cfab7",
      "contractAddress": null,
      "daFootprintGasScalar": "0x190",
      "l1BaseFeeScalar": "0x7d0",
      "l1BlobBaseFee": "0x1",
      "l1BlobBaseFeeScalar": "0xdbba0",
      "l1Fee": "0x8d",
      "l1GasPrice": "0x10",
      "l1GasUsed": "0x640"
    },
    {
      "status": "0x1",
      "cumulativeGasUsed": "0x3304f",
      "logs": [
        {
          "address": "0xbe6c8171004b70a1d9694536a4891dce86e4b44e",
          "topics": [
            "0x8c5be1e5ebec7d5bd14f71427d1e84f3dd0314c0f7b2291e5b200ac8c7c3b925",
            "0x0000000000000000000000004b992f2fbf714c0fcbb23bac5130ace48cad00cd",
            "0x000000000000000000000000b664e46c230951da4389e195188aa4203fa76af0"
          ],
          "data": "0xffffffffffffffffffffffffffffffffffffffffffffffffffffffffffffffff",
          "blockHash": "0x7cfe23432f46519dc6291415eda1a0324c9e6766b6e6f50bad05e5e2469eaaf7",
          "blockNumber": "0x2c4c6a1",
          "blockTimestamp": "0x69b273ed",
          "transactionHash": "0xbaa805b41d0797bd0eb9141f9c4262e73c5ddbaf1fc736274e4f441fb824e33e",
          "transactionIndex": "0x3",
          "logIndex": "0x1",
          "removed": false
        }
      ],
      "logsBloom": "0x00000000000000000000000000000000000000000000000000000000000000000000000000100000000000000000000000000002000000000000000000200000000000000000000000000000080000000000000000000000000100000000000000000000000000000000000000020000000000000000000000000000000000000000000000000000040000000000000000000000000000000000000000000000020000000000000000000000000000000000000000000000004000000000000000000000000000000000000000000000000000000000000000000000000000000010000000000000000000080200000000000000000000000000000000000000",
      "type": "0x2",
      "transactionHash": "0xbaa805b41d0797bd0eb9141f9c4262e73c5ddbaf1fc736274e4f441fb824e33e",
      "transactionIndex": "0x3",
      "blockHash": "0x7cfe23432f46519dc6291415eda1a0324c9e6766b6e6f50bad05e5e2469eaaf7",
      "blockNumber": "0x2c4c6a1",
      "gasUsed": "0xb657",
      "effectiveGasPrice": "0x7a121",
      "blobGasUsed": "0x9c40",
      "from": "0x4b992f2fbf714c0fcbb23bac5130ace48cad00cd",
      "to": "0xbe6c8171004b70a1d9694536a4891dce86e4b44e",
      "contractAddress": null,
      "daFootprintGasScalar": "0x190",
      "l1BaseFeeScalar": "0x7d0",
      "l1BlobBaseFee": "0x1",
      "l1BlobBaseFeeScalar": "0xdbba0",
      "l1Fee": "0x8d",
      "l1GasPrice": "0x10",
      "l1GasUsed": "0x640"
    },
    {
      "status": "0x1",
      "cumulativeGasUsed": "0x95787",
      "logs": [
        {
          "address": "0x53edcb5facceede8a1eac2237daebf7fc983a574",
          "topics": [
            "0x7d84f159f12db2ff9c20cce3296d2fc78f4d41444ac78b311690aedd01956bf7",
            "0x2fefb37258e0ec81c6307c81f8bdfaa5e5d126fdf836a8a4b9ae8d3920f55a59",
            "0x0000000000000000000000004b992f2fbf714c0fcbb23bac5130ace48cad00cd"
          ],
          "data": "0xb9c0bbbd9737171a4c06dcd05451a03de6abdf3f4efff2717cb0c1334d4c1fc5",
          "blockHash": "0x7cfe23432f46519dc6291415eda1a0324c9e6766b6e6f50bad05e5e2469eaaf7",
          "blockNumber": "0x2c4c6a1",
          "blockTimestamp": "0x69b273ed",
          "transactionHash": "0x4a3a2ec5b8b6729513fda5ce28ca6e9df1b8c1e9a8ecb8025ed7bb8c1b6e57d8",
          "transactionIndex": "0x4",
          "logIndex": "0x2",
          "removed": false
        },
        {
          "address": "0x53edcb5facceede8a1eac2237daebf7fc983a574",
          "topics": [
            "0xbb97b065065db79d83dcbcb3b07e37e582e5429a95eb55ad2aafe36e8b55c2cb",
            "0x2fefb37258e0ec81c6307c81f8bdfaa5e5d126fdf836a8a4b9ae8d3920f55a59"
          ],
          "data": "0x24c9fb43bbda12286545055d7480f3fa3ae6c132770f26d125aad7cf9dc7d9750000000000000000000000000000000000000000000000000000000000000001",
          "blockHash": "0x7cfe23432f46519dc6291415eda1a0324c9e6766b6e6f50bad05e5e2469eaaf7",
          "blockNumber": "0x2c4c6a1",
          "blockTimestamp": "0x69b273ed",
          "transactionHash": "0x4a3a2ec5b8b6729513fda5ce28ca6e9df1b8c1e9a8ecb8025ed7bb8c1b6e57d8",
          "transactionIndex": "0x4",
          "logIndex": "0x3",
          "removed": false
        }
      ],
      "logsBloom": "0x00000000000000000000000000000000000000000000000000000000008000000000000000000000000000000000000000000002000000000000400000000000000020000000000000000000000000000000000000000000000100000000000000000000000000000000000004020000000000000000000000000000000000000000000000000000000000000000000000000000000000000000000000000000000000000000000080000000400000000000000000000000000000000000000000020000000000002000400000000000000000000000000080200000000000000000000000000000000000000000000000000000000000000000040000000000",
      "type": "0x2",
      "transactionHash": "0x4a3a2ec5b8b6729513fda5ce28ca6e9df1b8c1e9a8ecb8025ed7bb8c1b6e57d8",
      "transactionIndex": "0x4",
      "blockHash": "0x7cfe23432f46519dc6291415eda1a0324c9e6766b6e6f50bad05e5e2469eaaf7",
      "blockNumber": "0x2c4c6a1",
      "gasUsed": "0x62738",
      "effectiveGasPrice": "0x7a121",
      "blobGasUsed": "0x168f0",
      "from": "0x4b992f2fbf714c0fcbb23bac5130ace48cad00cd",
      "to": "0x53edcb5facceede8a1eac2237daebf7fc983a574",
      "contractAddress": null,
      "daFootprintGasScalar": "0x190",
      "l1BaseFeeScalar": "0x7d0",
      "l1BlobBaseFee": "0x1",
      "l1BlobBaseFeeScalar": "0xdbba0",
      "l1Fee": "0x147",
      "l1GasPrice": "0x10",
      "l1GasUsed": "0xe7c"
    },
    {
      "status": "0x1",
      "cumulativeGasUsed": "0xa2191",
      "logs": [
        {
          "address": "0x00b036b58a818b1bc34d502d3fe730db729e62ac",
          "topics": [
            "0xdd466e674ea557f56295e2d0218a125ea4b4f0f6f3307b95f85e6110838d6438",
            "0x2fefb37258e0ec81c6307c81f8bdfaa5e5d126fdf836a8a4b9ae8d3920f55a59",
            "0x0000000000000000000000003cc7840140ff4cf8d4ae3176f9d9090a378cfab7",
            "0x000000000000000000000000be6c8171004b70a1d9694536a4891dce86e4b44e"
          ],
          "data": "0x0000000000000000000000000000000000000000000000000000000000000bb8000000000000000000000000000000000000000000000000000000000000003c0000000000000000000000008165120e7c04bd5f52df16d90365f87c1dfe80c000000000000000000000000000000000000000010000000000000000000000000000000000000000000000000000000000000000000000000000000000000000",
          "blockHash": "0x7cfe23432f46519dc6291415eda1a0324c9e6766b6e6f50bad05e5e2469eaaf7",
          "blockNumber": "0x2c4c6a1",
          "blockTimestamp": "0x69b273ed",
          "transactionHash": "0x38a56020e31f131d03c8bb86773089903b3e50e23ab88e94a2cb4a89eec60618",
          "transactionIndex": "0x5",
          "logIndex": "0x4",
          "removed": false
        }
      ],
      "logsBloom": "0x00000000000000000000000000000000000000000000000000000000000000000000000000000000000000000000000000000000000000000000400000000000000000000000400000000000000000100000000000000000000000000000000000000000000000000000000004000000000000000000000000010000000000000000800000000008000000000008000000000001000000000000000000200000000000000000000080000000000000000000000000000000000000000000000000000000000000000000000000000000000000000000000000000000000000200000000000000000000000000000000000000000020002000000000000000010",
      "type": "0x2",
      "transactionHash": "0x38a56020e31f131d03c8bb86773089903b3e50e23ab88e94a2cb4a89eec60618",
      "transactionIndex": "0x5",
      "blockHash": "0x7cfe23432f46519dc6291415eda1a0324c9e6766b6e6f50bad05e5e2469eaaf7",
      "blockNumber": "0x2c4c6a1",
      "gasUsed": "0xca0a",
      "effectiveGasPrice": "0x7a121",
      "blobGasUsed": "0xdde0",
      "from": "0x4b992f2fbf714c0fcbb23bac5130ace48cad00cd",
      "to": "0x00b036b58a818b1bc34d502d3fe730db729e62ac",
      "contractAddress": null,
      "daFootprintGasScalar": "0x190",
      "l1BaseFeeScalar": "0x7d0",
      "l1BlobBaseFee": "0x1",
      "l1BlobBaseFeeScalar": "0xdbba0",
      "l1Fee": "0xc8",
      "l1GasPrice": "0x10",
      "l1GasUsed": "0x8e4"
    },
    {
      "status": "0x1",
      "cumulativeGasUsed": "0xeaa6b",
      "logs": [
        {
          "address": "0x00b036b58a818b1bc34d502d3fe730db729e62ac",
          "topics": [
            "0xf208f4912782fd25c7f114ca3723a2d5dd6f3bcc3ac8db5af63baa85f711d5ec",
            "0x2fefb37258e0ec81c6307c81f8bdfaa5e5d126fdf836a8a4b9ae8d3920f55a59",
            "0x00000000000000000000000071c7eaa56391147b8d05c1fe39b93eb8d8630366"
          ],
          "data": "0xffffffffffffffffffffffffffffffffffffffffffffffffffffffffffffff8800000000000000000000000000000000000000000000000000000000000000780000000000000000000000000000000000000000000000000de0b6b3a76400000000000000000000000000000000000000000000000000000000000000000000",
          "blockHash": "0x7cfe23432f46519dc6291415eda1a0324c9e6766b6e6f50bad05e5e2469eaaf7",
          "blockNumber": "0x2c4c6a1",
          "blockTimestamp": "0x69b273ed",
          "transactionHash": "0x2b1d7a3071dbf20ad1695f8cf1ff51190c9c5c1745b23264610011d3d75a0ed8",
          "transactionIndex": "0x6",
          "logIndex": "0x5",
          "removed": false
        },
        {
          "address": "0x3cc7840140ff4cf8d4ae3176f9d9090a378cfab7",
          "topics": [
            "0xddf252ad1be2c89b69c2b068fc378daa952ba7f163c4a11628f55a4df523b3ef",
            "0x0000000000000000000000004b992f2fbf714c0fcbb23bac5130ace48cad00cd",
            "0x00000000000000000000000000b036b58a818b1bc34d502d3fe730db729e62ac"
          ],
          "data": "0x0000000000000000000000000000000000000000000000000015405bda5acedf",
          "blockHash": "0x7cfe23432f46519dc6291415eda1a0324c9e6766b6e6f50bad05e5e2469eaaf7",
          "blockNumber": "0x2c4c6a1",
          "blockTimestamp": "0x69b273ed",
          "transactionHash": "0x2b1d7a3071dbf20ad1695f8cf1ff51190c9c5c1745b23264610011d3d75a0ed8",
          "transactionIndex": "0x6",
          "logIndex": "0x6",
          "removed": false
        },
        {
          "address": "0xbe6c8171004b70a1d9694536a4891dce86e4b44e",
          "topics": [
            "0xddf252ad1be2c89b69c2b068fc378daa952ba7f163c4a11628f55a4df523b3ef",
            "0x0000000000000000000000004b992f2fbf714c0fcbb23bac5130ace48cad00cd",
            "0x00000000000000000000000000b036b58a818b1bc34d502d3fe730db729e62ac"
          ],
          "data": "0x0000000000000000000000000000000000000000000000000015405bda5acedf",
          "blockHash": "0x7cfe23432f46519dc6291415eda1a0324c9e6766b6e6f50bad05e5e2469eaaf7",
          "blockNumber": "0x2c4c6a1",
          "blockTimestamp": "0x69b273ed",
          "transactionHash": "0x2b1d7a3071dbf20ad1695f8cf1ff51190c9c5c1745b23264610011d3d75a0ed8",
          "transactionIndex": "0x6",
          "logIndex": "0x7",
          "removed": false
        }
      ],
      "logsBloom": "0x00000000000000000100000000000000000000000000000000000000000000000000000000100000000000000000000000000002001000000000400000000000000000000080000000000008080000000400000000000000000100000000000000000000000000000000000804024000000000000000000000000010000000000000000001000000000000000008000000000000000000000000000000000000800004000000000080000000000000000000000000000020000000000000000000000002000000800000000000000000000000000000000000000000000000000000000000000000000000000200000004000000000002000000000000000010",
      "type": "0x2",
      "transactionHash": "0x2b1d7a3071dbf20ad1695f8cf1ff51190c9c5c1745b23264610011d3d75a0ed8",
      "transactionIndex": "0x6",
      "blockHash": "0x7cfe23432f46519dc6291415eda1a0324c9e6766b6e6f50bad05e5e2469eaaf7",
      "blockNumber": "0x2c4c6a1",
      "gasUsed": "0x488da",
      "effectiveGasPrice": "0x7a121",
      "blobGasUsed": "0xfeb0",
      "from": "0x4b992f2fbf714c0fcbb23bac5130ace48cad00cd",
      "to": "0x71c7eaa56391147b8d05c1fe39b93eb8d8630366",
      "contractAddress": null,
      "daFootprintGasScalar": "0x190",
      "l1BaseFeeScalar": "0x7d0",
      "l1BlobBaseFee": "0x1",
      "l1BlobBaseFeeScalar": "0xdbba0",
      "l1Fee": "0xe6",
      "l1GasPrice": "0x10",
      "l1GasUsed": "0xa33"
    },
    {
      "status": "0x1",
      "cumulativeGasUsed": "0x121ef7",
      "logs": [
        {
          "address": "0x3cc7840140ff4cf8d4ae3176f9d9090a378cfab7",
          "topics": [
            "0xddf252ad1be2c89b69c2b068fc378daa952ba7f163c4a11628f55a4df523b3ef",
            "0x0000000000000000000000004b992f2fbf714c0fcbb23bac5130ace48cad00cd",
            "0x000000000000000000000000b664e46c230951da4389e195188aa4203fa76af0"
          ],
          "data": "0x00000000000000000000000000000000000000000000003635c9adc5dea00000",
          "blockHash": "0x7cfe23432f46519dc6291415eda1a0324c9e6766b6e6f50bad05e5e2469eaaf7",
          "blockNumber": "0x2c4c6a1",
          "blockTimestamp": "0x69b273ed",
          "transactionHash": "0xb0f3f46419f4792799b77d41580b6fac2fa336ec4c9e6d71c8c3d1bcae47765c",
          "transactionIndex": "0x7",
          "logIndex": "0x8",
          "removed": false
        },
        {
          "address": "0xbe6c8171004b70a1d9694536a4891dce86e4b44e",
          "topics": [
            "0xddf252ad1be2c89b69c2b068fc378daa952ba7f163c4a11628f55a4df523b3ef",
            "0x0000000000000000000000004b992f2fbf714c0fcbb23bac5130ace48cad00cd",
            "0x000000000000000000000000b664e46c230951da4389e195188aa4203fa76af0"
          ],
          "data": "0x00000000000000000000000000000000000000000000003635c9adc5dea00000",
          "blockHash": "0x7cfe23432f46519dc6291415eda1a0324c9e6766b6e6f50bad05e5e2469eaaf7",
          "blockNumber": "0x2c4c6a1",
          "blockTimestamp": "0x69b273ed",
          "transactionHash": "0xb0f3f46419f4792799b77d41580b6fac2fa336ec4c9e6d71c8c3d1bcae47765c",
          "transactionIndex": "0x7",
          "logIndex": "0x9",
          "removed": false
        },
        {
          "address": "0xb664e46c230951da4389e195188aa4203fa76af0",
          "topics": [
            "0x5fc9fc2f3a33277b43b33ac226b81a5f87f8e5f2e3b36aef009852b310ddd37e",
            "0x2fefb37258e0ec81c6307c81f8bdfaa5e5d126fdf836a8a4b9ae8d3920f55a59",
            "0x0000000000000000000000004b992f2fbf714c0fcbb23bac5130ace48cad00cd"
          ],
          "data": "0x00000000000000000000000000000000000000000000003635c9adc5dea0000000000000000000000000000000000000000000000000003635c9adc5dea0000000000000000000000000000000000000000000000000006c6b935b8bbd400000",
          "blockHash": "0x7cfe23432f46519dc6291415eda1a0324c9e6766b6e6f50bad05e5e2469eaaf7",
          "blockNumber": "0x2c4c6a1",
          "blockTimestamp": "0x69b273ed",
          "transactionHash": "0xb0f3f46419f4792799b77d41580b6fac2fa336ec4c9e6d71c8c3d1bcae47765c",
          "transactionIndex": "0x7",
          "logIndex": "0xa",
          "removed": false
        },
        {
          "address": "0x53edcb5facceede8a1eac2237daebf7fc983a574",
          "topics": [
            "0xd8a44c3d506f6f678333dcdd73bd3a4d3c2339dcafa2d0fee0040ded46c31123",
            "0x2fefb37258e0ec81c6307c81f8bdfaa5e5d126fdf836a8a4b9ae8d3920f55a59"
          ],
          "data": "0x00000000000000000000000000000000000000000000003635c9adc5dea0000000000000000000000000000000000000000000000000003635c9adc5dea0000000000000000000000000000000000000000000000000006c6b935b8bbd400000",
          "blockHash": "0x7cfe23432f46519dc6291415eda1a0324c9e6766b6e6f50bad05e5e2469eaaf7",
          "blockNumber": "0x2c4c6a1",
          "blockTimestamp": "0x69b273ed",
          "transactionHash": "0xb0f3f46419f4792799b77d41580b6fac2fa336ec4c9e6d71c8c3d1bcae47765c",
          "transactionIndex": "0x7",
          "logIndex": "0xb",
          "removed": false
        }
      ],
      "logsBloom": "0x00000000000000000000000000000000000000000000000000000000000000000000000000100000000000000000000000000002000000000000400000000010000000000080000000000008080000000400000000000000000100000000000000000000000000000000000804020000000000000000000000000010000000000000000000000000040000000000000000000000000000000000000000002000000000000000000080400000000000004000000000000000004000000000000000000002000000000000400000000000000000000000000080000002020000000000000000000000000000080200200400000000000000000000040000000000",
      "type": "0x2",
      "transactionHash": "0xb0f3f46419f4792799b77d41580b6fac2fa336ec4c9e6d71c8c3d1bcae47765c",
      "transactionIndex": "0x7",
      "blockHash": "0x7cfe23432f46519dc6291415eda1a0324c9e6766b6e6f50bad05e5e2469eaaf7",
      "blockNumber": "0x2c4c6a1",
      "gasUsed": "0x3748c",
      "effectiveGasPrice": "0x7a121",
      "blobGasUsed": "0x9dd0",
      "from": "0x4b992f2fbf714c0fcbb23bac5130ace48cad00cd",
      "to": "0x53edcb5facceede8a1eac2237daebf7fc983a574",
      "contractAddress": null,
      "daFootprintGasScalar": "0x190",
      "l1BaseFeeScalar": "0x7d0",
      "l1BlobBaseFee": "0x1",
      "l1BlobBaseFeeScalar": "0xdbba0",
      "l1Fee": "0x8f",
      "l1GasPrice": "0x10",
      "l1GasUsed": "0x654"
    },
    {
      "status": "0x1",
      "cumulativeGasUsed": "0x16eb39",
      "logs": [
        {
          "address": "0x00b036b58a818b1bc34d502d3fe730db729e62ac",
          "topics": [
            "0x40e9cecb9f5f1f1c5b9c97dec2917b7ee92e57ba5563708daca94dd84ad7112f",
            "0x2fefb37258e0ec81c6307c81f8bdfaa5e5d126fdf836a8a4b9ae8d3920f55a59",
            "0x000000000000000000000000c7e2b73632a9fce139e7de31e74f49ef4ecd66ae"
          ],
          "data": "0xfffffffffffffffffffffffffffffffffffffffffffffffffffe3940ad9cc0000000000000000000000000000000000000000000000000000001c5283ee988b90000000000000000000000000000000000000000ffdf58b994877b1adf31b7ba0000000000000000000000000000000000000000000000000de0b6b3a7640000fffffffffffffffffffffffffffffffffffffffffffffffffffffffffffffff60000000000000000000000000000000000000000000000000000000000000bb8",
          "blockHash": "0x7cfe23432f46519dc6291415eda1a0324c9e6766b6e6f50bad05e5e2469eaaf7",
          "blockNumber": "0x2c4c6a1",
          "blockTimestamp": "0x69b273ed",
          "transactionHash": "0x1acf2b294684837a8c88b23f4960992659f5cbe088783af5731631fa672bff30",
          "transactionIndex": "0x9",
          "logIndex": "0xd",
          "removed": false
        },
        {
          "address": "0x3cc7840140ff4cf8d4ae3176f9d9090a378cfab7",
          "topics": [
            "0xddf252ad1be2c89b69c2b068fc378daa952ba7f163c4a11628f55a4df523b3ef",
            "0x0000000000000000000000004b992f2fbf714c0fcbb23bac5130ace48cad00cd",
            "0x00000000000000000000000000b036b58a818b1bc34d502d3fe730db729e62ac"
          ],
          "data": "0x0000000000000000000000000000000000000000000000000001c6bf52634000",
          "blockHash": "0x7cfe23432f46519dc6291415eda1a0324c9e6766b6e6f50bad05e5e2469eaaf7",
          "blockNumber": "0x2c4c6a1",
          "blockTimestamp": "0x69b273ed",
          "transactionHash": "0x1acf2b294684837a8c88b23f4960992659f5cbe088783af5731631fa672bff30",
          "transactionIndex": "0x9",
          "logIndex": "0xe",
          "removed": false
        },
        {
          "address": "0xbe6c8171004b70a1d9694536a4891dce86e4b44e",
          "topics": [
            "0xddf252ad1be2c89b69c2b068fc378daa952ba7f163c4a11628f55a4df523b3ef",
            "0x00000000000000000000000000b036b58a818b1bc34d502d3fe730db729e62ac",
            "0x0000000000000000000000004b992f2fbf714c0fcbb23bac5130ace48cad00cd"
          ],
          "data": "0x0000000000000000000000000000000000000000000000000001c5283ee988b9",
          "blockHash": "0x7cfe23432f46519dc6291415eda1a0324c9e6766b6e6f50bad05e5e2469eaaf7",
          "blockNumber": "0x2c4c6a1",
          "blockTimestamp": "0x69b273ed",
          "transactionHash": "0x1acf2b294684837a8c88b23f4960992659f5cbe088783af5731631fa672bff30",
          "transactionIndex": "0x9",
          "logIndex": "0xf",
          "removed": false
        }
      ],
      "logsBloom": "0x00000000000000000000000000000000000000000000000000000000000000000000000000100000000000000000000008000002041000000000400000000000000000000080000000000008080000000400000000000020000100000000000000000000000000000000000804024000000000000000000000000010000000000000000000000000000000000008000000000000000000000002000000000000000000000000000080000000000000000000000000000020000000000000000000000002000000000000000000000000000000000000000000000000000000000000001000000000004000000200000000000000000002000000000000000010",
      "type": "0x2",
      "transactionHash": "0x1acf2b294684837a8c88b23f4960992659f5cbe088783af5731631fa672bff30",
      "transactionIndex": "0x9",
      "blockHash": "0x7cfe23432f46519dc6291415eda1a0324c9e6766b6e6f50bad05e5e2469eaaf7",
      "blockNumber": "0x2c4c6a1",
      "gasUsed": "0x35c10",
      "effectiveGasPrice": "0x7a121",
      "blobGasUsed": "0x101d0",
      "from": "0x4b992f2fbf714c0fcbb23bac5130ace48cad00cd",
      "to": "0xc7e2b73632a9fce139e7de31e74f49ef4ecd66ae",
      "contractAddress": null,
      "daFootprintGasScalar": "0x190",
      "l1BaseFeeScalar": "0x7d0",
      "l1BlobBaseFee": "0x1",
      "l1BlobBaseFeeScalar": "0xdbba0",
      "l1Fee": "0xe9",
      "l1GasPrice": "0x10",
      "l1GasUsed": "0xa5b"
    },
    {
      "status": "0x1",
      "cumulativeGasUsed": "0x17ff8a",
      "logs": [
        {
          "address": "0xb664e46c230951da4389e195188aa4203fa76af0",
          "topics": [
            "0x2d42e6021a76becd48fe6f8fc73768511935569c4dac95fe3ee4d7ca7fd74eb3",
            "0x2fefb37258e0ec81c6307c81f8bdfaa5e5d126fdf836a8a4b9ae8d3920f55a59"
          ],
          "data": "0x0000000000000000000000000000000000000000000000000000000000000fa0",
          "blockHash": "0x7cfe23432f46519dc6291415eda1a0324c9e6766b6e6f50bad05e5e2469eaaf7",
          "blockNumber": "0x2c4c6a1",
          "blockTimestamp": "0x69b273ed",
          "transactionHash": "0xd191348d8b76bc7a28c971c5a98e86760bf09d5954795c0d4bd109cab8915d3d",
          "transactionIndex": "0xa",
          "logIndex": "0x10",
          "removed": false
        },
        {
          "address": "0x53edcb5facceede8a1eac2237daebf7fc983a574",
          "topics": [
            "0xd0f7cde4877d750e8074e2283e38de286ddbaedbca10b109ffc8803dc2c5fb56",
            "0x2fefb37258e0ec81c6307c81f8bdfaa5e5d126fdf836a8a4b9ae8d3920f55a59"
          ],
          "data": "0x0000000000000000000000000000000000000000000000000000000000000fa00000000000000000000000000000000000000000000000000000000000000000",
          "blockHash": "0x7cfe23432f46519dc6291415eda1a0324c9e6766b6e6f50bad05e5e2469eaaf7",
          "blockNumber": "0x2c4c6a1",
          "blockTimestamp": "0x69b273ed",
          "transactionHash": "0xd191348d8b76bc7a28c971c5a98e86760bf09d5954795c0d4bd109cab8915d3d",
          "transactionIndex": "0xa",
          "logIndex": "0x11",
          "removed": false
        }
      ],
      "logsBloom": "0x00000000000000000000000000000000000000000000000000000000000000000000000000000000000000000000000000000000000000000000400000000010000000000000000000000000000000000000800000000000000000000000100000000000000000000000000004000000080000000000000000000000000000000000000000000000000000000000000000000000000000000000000000000000000000000000000080000000000000004000000000000000000000000000000000000000000000000000400000000000000000000000000090000000000000000000000100000000000000000000000000000000000400000000040000000000",
      "type": "0x2",
      "transactionHash": "0xd191348d8b76bc7a28c971c5a98e86760bf09d5954795c0d4bd109cab8915d3d",
      "transactionIndex": "0xa",
      "blockHash": "0x7cfe23432f46519dc6291415eda1a0324c9e6766b6e6f50bad05e5e2469eaaf7",
      "blockNumber": "0x2c4c6a1",
      "gasUsed": "0x11451",
      "effectiveGasPrice": "0x7a121",
      "blobGasUsed": "0x9c40",
      "from": "0x4b992f2fbf714c0fcbb23bac5130ace48cad00cd",
      "to": "0x53edcb5facceede8a1eac2237daebf7fc983a574",
      "contractAddress": null,
      "daFootprintGasScalar": "0x190",
      "l1BaseFeeScalar": "0x7d0",
      "l1BlobBaseFee": "0x1",
      "l1BlobBaseFeeScalar": "0xdbba0",
      "l1Fee": "0x8d",
      "l1GasPrice": "0x10",
      "l1GasUsed": "0x640"
    },
    {
      "status": "0x1",
      "cumulativeGasUsed": "0x1995c1",
      "logs": [
        {
          "address": "0x3cc7840140ff4cf8d4ae3176f9d9090a378cfab7",
          "topics": [
            "0xddf252ad1be2c89b69c2b068fc378daa952ba7f163c4a11628f55a4df523b3ef",
            "0x000000000000000000000000b664e46c230951da4389e195188aa4203fa76af0",
            "0x0000000000000000000000004b992f2fbf714c0fcbb23bac5130ace48cad00cd"
          ],
          "data": "0x00000000000000000000000000000000000000000000000ad78ebc5ac6200000",
          "blockHash": "0x7cfe23432f46519dc6291415eda1a0324c9e6766b6e6f50bad05e5e2469eaaf7",
          "blockNumber": "0x2c4c6a1",
          "blockTimestamp": "0x69b273ed",
          "transactionHash": "0x37bfe50cf02862eafe44716f778ab8c338a6b81a28fcb8b516b8f60dac2744d8",
          "transactionIndex": "0xb",
          "logIndex": "0x12",
          "removed": false
        },
        {
          "address": "0xbe6c8171004b70a1d9694536a4891dce86e4b44e",
          "topics": [
            "0xddf252ad1be2c89b69c2b068fc378daa952ba7f163c4a11628f55a4df523b3ef",
            "0x000000000000000000000000b664e46c230951da4389e195188aa4203fa76af0",
            "0x0000000000000000000000004b992f2fbf714c0fcbb23bac5130ace48cad00cd"
          ],
          "data": "0x00000000000000000000000000000000000000000000000ad78ebc5ac6200000",
          "blockHash": "0x7cfe23432f46519dc6291415eda1a0324c9e6766b6e6f50bad05e5e2469eaaf7",
          "blockNumber": "0x2c4c6a1",
          "blockTimestamp": "0x69b273ed",
          "transactionHash": "0x37bfe50cf02862eafe44716f778ab8c338a6b81a28fcb8b516b8f60dac2744d8",
          "transactionIndex": "0xb",
          "logIndex": "0x13",
          "removed": false
        },
        {
          "address": "0xb664e46c230951da4389e195188aa4203fa76af0",
          "topics": [
            "0xad382ae4a0a8c252d70b902c9cc346f3e881ad505df3f728122a01006bb88f09",
            "0x2fefb37258e0ec81c6307c81f8bdfaa5e5d126fdf836a8a4b9ae8d3920f55a59",
            "0x0000000000000000000000004b992f2fbf714c0fcbb23bac5130ace48cad00cd"
          ],
          "data": "0x00000000000000000000000000000000000000000000000ad78ebc5ac620000000000000000000000000000000000000000000000000000ad78ebc5ac6200000",
          "blockHash": "0x7cfe23432f46519dc6291415eda1a0324c9e6766b6e6f50bad05e5e2469eaaf7",
          "blockNumber": "0x2c4c6a1",
          "blockTimestamp": "0x69b273ed",
          "transactionHash": "0x37bfe50cf02862eafe44716f778ab8c338a6b81a28fcb8b516b8f60dac2744d8",
          "transactionIndex": "0xb",
          "logIndex": "0x14",
          "removed": false
        },
        {
          "address": "0x53edcb5facceede8a1eac2237daebf7fc983a574",
          "topics": [
            "0xd7172419dfc9d074410028d37e020b612ebfaabdb3dcb1cfdf0ee94209f6aa0b",
            "0x2fefb37258e0ec81c6307c81f8bdfaa5e5d126fdf836a8a4b9ae8d3920f55a59"
          ],
          "data": "0x0000000000000000000000004b992f2fbf714c0fcbb23bac5130ace48cad00cd00000000000000000000000000000000000000000000000ad78ebc5ac620000000000000000000000000000000000000000000000000000ad78ebc5ac6200000000000000000000000000000000000000000000000000015af1d78b58c400000",
          "blockHash": "0x7cfe23432f46519dc6291415eda1a0324c9e6766b6e6f50bad05e5e2469eaaf7",
          "blockNumber": "0x2c4c6a1",
          "blockTimestamp": "0x69b273ed",
          "transactionHash": "0x37bfe50cf02862eafe44716f778ab8c338a6b81a28fcb8b516b8f60dac2744d8",
          "transactionIndex": "0xb",
          "logIndex": "0x15",
          "removed": false
        }
      ],
      "logsBloom": "0x00000000000000000000000000000000000000000000000000000000000000000000000004100800000000000000000000000002000000000000400000000010000000000080000000000008080000000400000000000000000100000000000000000000000000000000000804020000000000000000000000000010000000000000000000000000040000000000000000000000000000000000000000000000000000000800000080000000000000024000000000000000004000000000000000000002000000000000401000000000000000000000000080000000000000000000000000000000000000080200000000000000000000000001040000000000",
      "type": "0x2",
      "transactionHash": "0x37bfe50cf02862eafe44716f778ab8c338a6b81a28fcb8b516b8f60dac2744d8",
      "transactionIndex": "0xb",
      "blockHash": "0x7cfe23432f46519dc6291415eda1a0324c9e6766b6e6f50bad05e5e2469eaaf7",
      "blockNumber": "0x2c4c6a1",
      "gasUsed": "0x19637",
      "effectiveGasPrice": "0x7a121",
      "blobGasUsed": "0xc1c0",
      "from": "0x4b992f2fbf714c0fcbb23bac5130ace48cad00cd",
      "to": "0x53edcb5facceede8a1eac2237daebf7fc983a574",
      "contractAddress": null,
      "daFootprintGasScalar": "0x190",
      "l1BaseFeeScalar": "0x7d0",
      "l1BlobBaseFee": "0x1",
      "l1BlobBaseFeeScalar": "0xdbba0",
      "l1Fee": "0xb0",
      "l1GasPrice": "0x10",
      "l1GasUsed": "0x7cb"
    }
  ],
  "libraries": [],
  "pending": [],
  "returns": {},
  "timestamp": 1773302766564,
  "chain": 1301,
  "commit": "6265450"
}